:020000040800F2
:10000000187A01205D0200082D4800088941000887
:10001000DD46000885080008D355000800000000F0
:100020000000000000000000000000009D0100082A
:10003000D711000800000000F90100088D4B0008EE
:1000400077020008770200087702000877020008AC
:10005000770200087702000877020008770200089C
:10006000770200087702000877020008770200088C
:10007000050E0008770200087702000877020008E2
:10008000770200087702000877020008770200086C
:10009000890800089908000877020008770200081C
:1000A000770200087702000877020008770200084C
:1000B000770200087702000877020008770200083C
:1000C0007702000877020008770200084D4B00080D
:1000D000770200087702000877020008770200081C
:1000E000770200087702000877020008770200080C
:1000F000770200088D4C000877020008770200089C
:1001000077020008770200087702000877020008EB
:1001100077020008770200087702000877020008DB
:10012000150E000877020008250E0008350E00089D
:1001300077020008770200087702000877020008BB
:10014000A9080008B908000877020008770200082B
:10015000770200087702000877020008770200089B
:10016000770200087702000877020008770200088B
:1001700077020008770200087702000800000000FC
:100180007702000877020008DFF80CD000F090FA40
:1001900000480047E9600008187A01202C4B1968D4
:1001A0000868B0E8F04F80F30988BFF36F8F4FF015
:1001B000000080F3118870470000000008480068C4
:1001C000006880F308884FF0000080F3148862B65E
:1001D00061B6BFF34F8FBFF36F8F00DF00BF00BF6B
:1001E00008ED00E0DFF80C00016841F470010160E7
:1001F000704700BF88ED00E0EFF30980BFF36F8F19
:10020000134B1A681EF0100F08BF20ED108A20E96A
:10021000F04F106009B44FF0500080F31188BFF325
:100220004F8FBFF36F8F06F0ADFD4FF0000080F3EE
:10023000118809BC19680868B0E8F04F1EF0100F6B
:1002400008BFB0EC108A80F30988BFF36F8F704746
:1002500090020020EFF305807047000006488047B9
:1002600006480047FEE7FEE7FEE7FEE7FEE7FEE79B
:10027000FEE7FEE7FEE7FEE7794C0008890100088B
:100280002DE9F05F0546002092469B4688460646CB
:10029000814640241BE0284641464746224600F05E
:1002A00063F953465A46C01A914110D31146184675
:1002B000224600F04AF92D1A67EB01084F46224604
:1002C0000120002100F041F917EB00094E41201EEA
:1002D000A4F10104DFDC484631462A464346BDE826
:1002E000F09F40EA01039B0703D009E008C9121FF1
:1002F00008C0042AFAD203E011F8013B00F8013BE0
:10030000521EF9D27047D2B201E000F8012B491E0B
:10031000FBD270470022F6E710B513460A460446A2
:100320001946FFF7F0FF204610BD2DE9FE4F81EA88
:10033000030404F0004421F0004100944FF0000B4E
:1003400023F0004350EA01045ED052EA03045BD07C
:10035000C3F30A54C1F30A552C44A4F2F3340194B4
:10036000A0FB0254C1F3130141F48011C3F3130342
:1003700043F4801301FB024400FB034E840A970AF6
:1003800044EA815447EA8357A4FB076802958D0A23
:1003900005FB07854FEA932C04FB0C542705029DAF
:1003A0004FEA065847EA1637B5EB08056EEB070C1F
:1003B000870E920E47EA811742EA8312A7FB0201D9
:1003C000B6EB0B0164EB00042B0D43EA0C335E1813
:1003D00044EB1C50DA465146E7FB0201C5F3130417
:1003E0004FEA0B3343EA14534FEA0432019C43EAC9
:1003F0000603A4F10C040294009CCDE900B400F0C3
:1004000009F903B0BDE8F08F00200146F9E72DE9B6
:10041000F04D81EA030404F0004B21F0004514463E
:100420004FF0000A23F0004150EA050220D054EAC0
:1004300001021DD0C5F30A570246C5F31303C1F3E9
:100440001300C1F30A5640F4801543F48013A7EB60
:100450000608101BD64608F2FD3873EB050002D3E0
:1004600008F1010801E092185B41B8F1000F03DACE
:1004700000200146BDE8F08D00204FF480110646B3
:1004800084460EE0171B73EB050705D3121B63EBC5
:10049000050306434CEA010C49084FEA3000921864
:1004A0005B4150EA0107EDD152EA030012D082EA23
:1004B000040083EA0501084305D0101BAB4106D2B6
:1004C0000122002306E000224FF0004302E06FF01B
:1004D000010253101AEB06004CEB085110EB0A0016
:1004E00041EB0B01BDE8F04D00F085B800F0004293
:1004F00030F000400AD0C10D01F56071C0F3160064
:1005000042EA0151C20840071143704700200146EA
:10051000704701F0004330B421F0004150EA01027D
:1005200006D00A0DA2F56072C1F31301002A02DCA5
:1005300030BC00207047440F44EAC104C100E018F9
:1005400030BC00EBC25000F01FB8202A04DB203A78
:1005500000FA02F1002070479140C2F1200320FA16
:1005600003F3194390407047202A04DB203A21FA14
:1005700002F00021704721FA02F3D040C2F12002BC
:1005800091400843194670470029A8BF7047401C96
:10059000490008BF20F00100704710B4B0FA80FC99
:1005A00000FA0CF050EA010404BF10BC704749B1D6
:1005B000CCF1200421FA04F411FA0CF118BF012146
:1005C00021430843A3EB0C01CB1D4FEA00614FEA26
:1005D000102042BF002010BC704700EBC3501044F5
:1005E0000029A4BF10BC7047401C490008BF20F080
:1005F000010010BC704710B5141E73F1000408DA36
:10060000401C41F1000192185B411A4301D120F0D6
:10061000010010BD2DE9F04D92469B4611B1B1FA93
:1006200081F202E0B0FA80F220329046FFF78DFFAF
:1006300004460F4640EA0A0041EA0B0153465A4677
:10064000084313D0114653EA010019D0C8F1400203
:100650005046FFF789FF05460E465046594642462A
:10066000FFF773FF084305D0012004E02046394618
:10067000BDE8F08D0020054346EAE0762C43374381
:100680000A986305E40AA0EB08000022FD0A44EA88
:1006900047540A3002D500200146E9E70105101948
:1006A0006941DDE9084500196941BDE8F04DA2E75F
:1006B000064C074D06E0E06840F0010394E80700AF
:1006C00098471034AC42F6D3FFF762FDC47A0008B5
:1006D000E47A000870B58C1810F8015B15F0070378
:1006E00001D110F8013B2A1106D110F8012B03E0CB
:1006F00010F8016B01F8016B5B1EF9D12B0705D4D3
:100700000023521E0DD401F8013BFAE710F8013B1B
:10071000CB1A921C03E013F8015B01F8015B521E37
:10072000F9D5A142D8D3002070BD000000B5DDB0DE
:10073000214804F07DF82149086000220121204869
:1007400002F01AF8012291021E4802F015F84FF447
:100750008C721D4917A8FFF7C4FD00218DF85411B4
:100760000121599117A800F0C5FA18490860012124
:100770008DF854110321599117A800F0BBFA1449C0
:100780000860084600F032FB2C2212490CA8FFF743
:10079000A8FD0CA9104804F093F92C220D492C3126
:1007A00001A8FFF79EFD01A90C4804F089F904F0A7
:1007B000D3FF5DB000BD00005C0700206002002098
:1007C00000140240001C02402C7900085C0200204A
:1007D00058020020447A0008180A0020900A0020DD
:1007E00000BF04F099FF012005F0DCFCF9E70000F0
:1007F00010B52DED028B9FED1E0AB0EE408A1D480C
:100800000068662827D005DC48B111280ED055288D
:1008100028D11DE077281FD0882823D11FE005F0BC
:10082000FDFF9FED130A00F08BFD1CE09FED120A07
:10083000124880ED000A9FED100A114880ED000A71
:1008400042F2107005F0AEFC00200A4908600AE090
:1008500004F0FAFE07E006E005F05CFA03E006F0BB
:1008600005F800E000BF00BFBDEC028B10BD00002A
:100870006F12833A64020020000000002002002072
:100880002402002000BFFEE710B5024801F09CF9E9
:1008900010BD00006405002010B5024801F094F975
:1008A00010BD00006405002010B5024801F08CF96D
:1008B00010BD00008C05002010B5024801F084F93D
:1008C00010BD00008C05002010B58AB00446012040
:1008D000069000200790207F00F0010080F00100CA
:1008E00004900E200990606B4001019020680D4932
:1008F000884207D10C4800780B490978491C0A4AFC
:10090000117006E00948007808490978491C074A2F
:1009100011700590012008902068694600F0CAFF18
:100920000AB010BD6405002025000020260000202C
:100930007CB505460E463AE06B46214A31462846CC
:1009400001F05DF800242EE01E4850F824000068F5
:10095000A84227D11A4800681A4951F82410496B57
:1009600088421FD1174850F82400D0F83900C0B190
:100970001348007C134951F8241081F838001049BD
:100980000A69104951F8241001F12C006946FFF75B
:10099000A8FC0C4A52F8240052F82420D2F839104E
:1009A00088477CBD641C084800788442CCD331461B
:1009B000284601F010F80028BED100BFF1E7000082
:1009C00034090020F40800202400002070B50546FA
:1009D0002548007808B900F04BF823480078102823
:1009E00001DB002070BD002111E0204850F82100FB
:1009F00000682A68904208D11C4850F82100406BDA
:100A0000AA68904201D10020ECE7481CC1B2164808
:100A100000788142E9DB412005F08EFB044641214C
:100A20002046FFF777FC686860600021E160216183
:100A300008216161286820606868E061A8686063D7
:100A4000E868C4F839002869C4F83D002046FFF77B
:100A50003BFF054801780078401C034A10700348AA
:100A600040F821402046BDE724000020F408002083
:100A700010B50B4801F05BFB0221094800F060FE55
:100A80001021074800F05CFE064801F050FB0221EF
:100A9000044800F055FE1021024800F051FE10BD40
:100AA000640500208C05002010B52DED028B044656
:100AB000B0EE408A00F098FAF0EE408A11E000F0C3
:100AC00093FA30EE680AB4EEC80AF1EE10FA08DDC7
:100AD00012480068401C114908600020BDEC028BE0
:100AE00010BD206801F055F80028E8D000F07CFA2D
:100AF00030EE680A0A4880ED000A206804F12003FD
:100B00001A1D211D00F031FE30B104480068401C60
:100B1000024908600020E1E70120DFE7280000200B
:100B20002C00002000BF00F007FC012005F03AFB7C
:100B3000F9E700002DE9F05F2DED028B4FF0000A80
:100B4000AEE0664850F82A6006F11C0406F128055C
:100B5000374695ED5E0AB0EE408A2079012803D130
:100B6000B1EE480AB0EE408AA07800F04000C8B16B
:100B70002088402816D1A079012805D1286890ED59
:100B8000000AF0EE408A03E097ED040AF0EE408A96
:100B9000F0EE480AB0EE680A05F5807003F0CEFE6C
:100BA000B0EE408AA07800F0080028B3207800F06A
:100BB000480008B3207A00F00A0030B1A86890ED30
:100BC000000A30EE080AB0EE408AE079012805D12B
:100BD000686890ED000AF0EE408A03E097ED020AA3
:100BE000F0EE408AF0EE480AB0EE680A05F188009F
:100BF00003F0A4FEB0EE408A207A00F0010030B18C
:100C0000E86890ED000A30EE080AB0EE408AA0785D
:100C100000F0010078B1B7F90C0000EE900AF8EE90
:100C2000E00AB0EE600AF0EE480A05F1100003F0A9
:100C300085FEB0EE408A6079012805D1BFEE000A3A
:100C400028EE000AB0EE408ABDEEC80A10EE100A87
:100C50000FFA80FB96F8AC8196F8AD91CBF30721A3
:100C600008EB88101E4A1044243000F8191008EBD5
:100C700088101146084424304FEA4901491C00F805
:100C800001B096F8AF0148B908EB8811114424313E
:100C9000022202FB09101021FFF73CFB0AF1010AB6
:100CA000104800788245FFF44CAF4FF0000A0DE089
:100CB0000D4810F80A0038B10AEB8A11084A881862
:100CC000B7EE000AFFF7F0FE0AF1010ABAF1060FCB
:100CD000EED3BDEC028BBDE8F09F00005C09002064
:100CE00085000020840000200B020020012180F8F4
:100CF000AF1170473EB505462F4800780C2801DD3E
:100D000000203EBD4FF4E07005F016FA04464FF4A3
:100D1000E0712046FFF7FEFA95F8000184F8AE0175
:100D2000D5F8F410E161D5F8F8102162D5F8FC008F
:100D3000606205F13C0104F1380003F0C1FE05F1E9
:100D4000680104F1B00003F0BBFE05F1940104F565
:100D5000947003F0B5FE2868A0626968E162E968F2
:100D60006163A968216305F58271204603F0B8FC30
:100D700012494FF488704151001D445105F58270AD
:100D8000FFF724FEC4F8A8010D4A07CA8DE8070042
:100D90000294684600F0F0F9C4F8B0012046FFF76D
:100DA000A5FF054801780078401C034A10700548EB
:100DB00040F821402046A4E784000020D911000813
:100DC000747300085C09002010B50146002381F807
:100DD000AF31D1F8A8311B68034CA34201D10123E4
:100DE00000E002231A4610BD6405002090ED040ABD
:100DF000D0ED060A30EE200A80ED060A704780ED3D
:100E0000680A704710B5024801F0DCF910BD000017
:100E10004C08002010B5024801F0D4F910BD0000C4
:100E20000C06002010B5024801F0CCF910BD0000FE
:100E3000EC07002010B5024801F0C4F910BD000015
:100E40006C0600200146087810381823B0FBF3F236
:100E50000848805CC865032A05D908686FF3090053
:100E6000001D886503E008686FF309008865886DD8
:100E70007047000054730008014600208A6A8B699D
:100E8000CBB932B1012A0DD0022A03D0032A10D1E6
:100E90000EE000BFCB6A03F08073B3F1807F00D116
:100EA000012007E0CB6AB3F1C07F00D1012001E04F
:100EB00000E000BF34E08B69B3F5005F1AD132B1B6
:100EC000012A07D0022A03D0032A11D10AE000BF69
:100ED00001200EE0CB6A03F08073B3F1807F00D174
:100EE000012006E0CB6AB3F1C07F00D1012000E011
:100EF00000BF15E032B1012A05D0022A04D0032A2E
:100F00000CD103E000BF00BF012008E0CB6A03F072
:100F10008073B3F1807F00D1012000E000BF00BFEB
:100F2000704730B50468246824F4802405682C6078
:100F3000046863608468402C04D10468A26004687B
:100F4000E16003E00468A1600468E26030BD000075
:100F500008B50E480078B8B901200C4908700C4853
:100F6000406800900B4900980968884204D20A48FA
:100F70000068401C08490860054840680549086049
:100F800000200249087000BF08BD00005800002082
:100F9000001000E0480000204400002010B52DEDB6
:100FA000028B82B004460E48406801902068019987
:100FB000081A00EE100AF8EE400A0A4890ED000AFE
:100FC000B8EE400A80EE801AB0EE418A01982060A7
:100FD000FFF7BEFFB0EE480A02B0BDEC028B10BDB9
:100FE000001000E03800002010B52DED028B00F05D
:100FF0005BF80F4880880E49096801EB4102C2EB9B
:10100000C11100EBC10000EE100AB8EE400A08481A
:10101000C08800EE900AF8EE600A9FED061A00EE16
:10102000810AB0EE408AB0EE480ABDEC028B10BDDA
:10103000300000206F12833A10B504461348006850
:1010400040F080701149086000201149486008464E
:10105000006840F0010008600E4860430E490860D7
:10106000084600684FF47A71B0FBF1F00B49086054
:10107000094800680749B0FBF1F009490860002001
:1010800008490860FFF764FF10BD0000FCED00E0B8
:10109000001000E040420F00380000203C0000201B
:1010A000400000204400002038B5294840680090E6
:1010B000FFF74EFF274800684FF0FF31A0FB0131DA
:1010C0000098181841F10001234A03C22348002365
:1010D0002149026803C9FFF7D3F8214A03C2204817
:1010E0000CC81E4800680024A2FB001503FB00503A
:1010F00002FB04021848D0E90030591A60EB0200E4
:10110000184AC2E9001016480068174908601748D5
:1011100000231449026803C9FFF7B2F81249888016
:10112000084680881149096841430E48D0E90030DB
:10113000591A60F100000E4AC2E900100D48002360
:101140000B49026803C9FFF79BF80749C88038BDFF
:10115000001000E044000020500000203800002073
:101160006000002068000020300000203C000020CB
:10117000700000204000002070B50446102004F0EC
:10118000DBFF0546002028606860A860E860A06872
:10119000E860208808B9642000E020882880606822
:1011A0006860608808B9642000E060882881208831
:1011B0002881054801780078401C034A10700348D4
:1011C00040F82150284670BD110200208C090020F3
:1011D00001880181704770472DE9F041074607F10A
:1011E0002C05D7F83D603446D6F8B001FFF7F0FF84
:1011F00006F5DA70FFF7D2FE86ED6E0A6088208071
:101200006878297840EA01206080608800EE100A42
:10121000B8EE400ADFED300A20EE200A84ED010A24
:10122000E878A97840EA012000B200EE100AB8EE92
:10123000C00ADFED2A0A20EE200AD4ED020A9FED53
:10124000281A01EE200A84ED020A6879297940EA19
:10125000012000B200EE100AB8EEC00ADFED210A4C
:1012600020EE200AB4F90C0000EE900AF8EEE00A35
:101270009FED1D1A01EE200ABDEEC00A10EE100A05
:1012800000B2A081A879A07360882188401AB0F5C7
:10129000805F03DD6069401E606108E0608821882E
:1012A000401A10F5805F02DA6069401C60614FF4FB
:1012B000B4716069484300EE100AB8EEC00AD4ED7C
:1012C000010A30EE200AD4ED060A30EE600A84ED01
:1012D000040ABDE8F0810000ACFF333D3433A34085
:1012E0009899193E6666663FD0CCCC3D10B5104843
:1012F0000068FFF76DFF0F480068806800780D49AF
:10130000096809680978884211D10A48006880682C
:101310008079084909680968097B884207D1054A2C
:1013200012689168034A1268106803F0FBFB10BD55
:101330001C02002014020020704772B600BFFEE7B6
:1013400070B52DED108B86B0B0EE408AE048006895
:10135000B0F9020000EE100AB8EEC00AB0EE40DAB2
:10136000DB480068B0F9040000EE100AB8EEC00ACD
:10137000F0EE40DA9FEDD70AB0EE40EA9FEDD60AD4
:10138000F0EE40EAB0EE000AB0EE40FAB0EE000A2D
:10139000F0EE40FA9FEDD10A8DED050A9FEDD00ADF
:1013A0008DED040A9FEDCF0A8DED030A9FEDCE0A65
:1013B0008DED020A9FEDCD0A8DED010AC44800684B
:1013C0008068FF2805D0C2480068806808B1012005
:1013D00000E000200446C6480068D0ED019A9FED69
:1013E000C50AF4EEC09AF1EE10FA08DD9FEDC20ACC
:1013F000F4EEC09AF1EE10FA01D2012000E00020D4
:10140000054685B99FEDBD0ABD4880ED000A9FEDF8
:10141000BB0AB7480068FFF7F2FCFFF78BFB06B08A
:10142000BDEC108B70BDB248006890ED04AA9FED32
:10143000B50AB4EEC0AAF1EE10FA08DD9FEDB20ACB
:10144000B4EEC0AAF1EE10FA01D2012000E00020B3
:1014500006466EB99FEDA90AAC4880ED000A9FEDE3
:10146000A70AAB480068FFF7CAFCFFF763FBD6E7A3
:10147000ECBB9FED9D0A28EE000AB0EE40CA9FED3E
:101480009B0A28EE000AF0EE40CAA048D0ED000A00
:101490009FED9A1A71EE600AB0EE600AB0EE4C1A37
:1014A000F1EE4C0A04F03AFA9848D0ED000A30EE1A
:1014B000200A80ED000A9248D0ED000A9FED8F1AB5
:1014C00071EE600AB0EE600AB0EE6C1AF1EE6C0AD2
:1014D00004F024FA8A48D0ED000A30EE200A80EDAC
:1014E000000A8A4890ED000A8948006800E00EE092
:1014F000FFF785FC824890ED000A7D480068FFF701
:101500007EFCFFF717FB00208249087087E77048D0
:1015100000688068992805D1B6EE000A7E4880ED03
:10152000000A04E09FED7D0A7B4880ED000A9FEDF4
:10153000690A3DEE400A7848D0ED000AF1EE600AF3
:1015400060EE208A9FED640A3DEEC00AD0ED000AED
:10155000F1EE600A20EE209AB0EE680A04F067F817
:10156000F0EE000AB4EEE00AF1EE10FA03D29FEDBD
:10157000630AF0EE408AB0EE490A04F058F8F0EE43
:10158000000AB4EEE00AF1EE10FA03D29FED5B0A16
:10159000B0EE409A5F48007840B96148C0ED008ADB
:1015A000604880ED009A01205A4908709FED4B0A6F
:1015B00038EE000AC8EE00AA594890ED000A78EE0D
:1015C000C00A90ED000A0AEEA00A80ED000A554814
:1015D00090ED000A79EE400A90ED000A0AEEA00AAA
:1015E00080ED000ADFED450A4D4890ED000A4E48B7
:1015F00003F0A4F94D4880ED000ADFED400A4948A8
:1016000090ED000A4A4803F099F94A4880ED000A33
:101610009FED331ADFED480A444890ED000A04F0CC
:101620007DF9424880ED000A9FED2E1ADFED430A56
:10163000404890ED000A04F071F93E4880ED000A40
:101640009FED290A28EE00BA9FED280A68EE00BA3D
:101650003648D0ED000A2D4890ED001A70EEC10A10
:10166000B0EE600AB0EE4B1AF1EE4B0A04F056F9F8
:101670002648D0ED000A30EE200A80ED000A2D4801
:10168000D0ED000A1E4890ED001A70EEC10AB0EECF
:10169000600AB0EE6B1AF1EE6B0A04F03FF91848DD
:1016A000D0ED000A30EE200A80ED000A174890EDD8
:1016B000000A17480068FFF7A2FB114890ED000AE6
:1016C0000B480068FFF79BFBFFF734FA00BFA6E664
:1016D0006002002000008A43000038438FC2F53CBE
:1016E00000007A4300004843008022440000FA438F
:1016F0005C020020000011430000A0430000000035
:10170000240200200000F0C20000F042200200206D
:1017100058020020880200208C0200209A99993EED
:101720008002002084020020180A002030020020DD
:10173000900A00203402002000007AC3000048C351
:1017400010B5024692F82030012B01D0022B06D1B1
:1017500010684069084314686061002010BD506A39
:1017600040F4802050620120F8E7F0B504460D46B1
:101770001E4694F8207020688368A86800B900E0CD
:1017800000BF012F01D0022F7DD103F0806030B95E
:1017900003F0006018B903F0805000287ED0C3F336
:1017A0000161012088403060A86860B9B5F800C0C8
:1017B000E86840EA4C5C206800F5C07000EB01105E
:1017C000C0F800C00FE0D5E901C040EACC00D5F870
:1017D0000CC040EA0C00D4F800C00CF5C07C0CEB47
:1017E000011CCCF80000D5F810C0206800F5C070CE
:1017F00000EB0110C0F804C0287D01280ED120683C
:1018000000F5C07000EB0110406840F4807C206857
:1018100000F5C07000EB0110C0F804C0D0790006DC
:1018200092F806C040EA0C4092F805C040EA0C204D
:1018300092F804C040EA0C00D4F800C00CF5C07C5B
:101840000CEB011CCCF80C00D078000692F802C01A
:1018500040EA0C4092F801C040EA0C2092F800C027
:1018600040EA0C00D4F800C00CF5C07C0CEB011C65
:10187000CCF80800206800F5C07000EB011000688B
:1018800040F0010C01E00FE008E0206800F5C070B6
:1018900000EB0110C0F800C00020F0BD606A40F409
:1018A000001060620120F8E7606A40F48020606206
:1018B0000120F2E7F0B504460A4694F82050012DC5
:1018C00001D0022D7ED1424901F50071086840F037
:1018D00001000860086820F47C5008600868566AB7
:1018E00040EA06200860107D00F01F06012000FA83
:1018F00006F3C8699843C861A1F50071D069C8B9F9
:10190000D1F80C029843C1F80C02908880B29689F5
:1019100040EA064601F51070576940F837601088B4
:1019200080B2168940EA064601F51070576900EB4F
:10193000C7004660D069012819D1D1F80C021843BC
:10194000C1F80C02908880B2168840EA064601F57C
:101950001070576940F83760908980B2168940EA64
:10196000064601F51070576900EBC70046609069A4
:1019700028B9D1F804029843C1F8040204E0D1F870
:1019800004021843C1F80402106928B9D1F81402FE
:101990009843C1F8140204E0D1F814021843C1F8C6
:1019A0001402106A012804D1D1F81C021843C1F8AE
:1019B0001C02D1F8000220F00100C1F80002002052
:1019C000F0BDFFE7606A40F4802060620120F7E725
:1019D00000640040704710B50246002092F82030A5
:1019E000012B01D0022B09D121B91468E46804F05D
:1019F000030003E01468246904F0030010BD70B50F
:101A0000044694F82050012D01D0022D7DD151B90A
:101A10002068C06800F0030080B9606A40F40010DC
:101A20006062012070BD2068006900F0030028B9E1
:101A3000606A40F4001060620120F3E7206800F55E
:101A4000D87000EB0110006800F00400906090680E
:101A500040B9206800F5D87000EB01100068400D17
:101A6000106007E0206800F5D87000EB01100068F6
:101A7000C0085060206800F5D87000EB01100068C5
:101A800000F00200D060206800F5D87000EB011073
:101A9000406800F00F00082802D30820106108E019
:101AA000206800F5D87000EB0110406800F00F00CE
:101AB0001061206800F5D87000EB0110406800F458
:101AC0007F40000A9061206800F5D87000EB01109B
:101AD0004068000C5061206800F5D87000EB0110E0
:101AE00080681870206800F5D87000EB01108068DD
:101AF00000F47F40000A5870206800F5D87000EBB1
:101B00000110806800F47F0000E03CE0000C987059
:101B1000206800F5D87000EB01108068000ED870C6
:101B2000206800F5D87000EB0110C06818712068BB
:101B300000F5D87000EB0110C06800F47F40000A87
:101B40005871206800F5D87000EB0110C06800F4EF
:101B50007F00000C9871206800F5D87000EB011030
:101B6000C068000ED87131B92068C06840F020000C
:101B70002668F06005E02068006940F020002668D3
:101B8000306100204EE7606A40F4802060620120EE
:101B900048E70146002091F82020012A01D0022ABE
:101BA00011D10B689B6803F0806303B1401C0B6884
:101BB0009B6803F0006303B1401C0B689B6803F053
:101BC000805303B1401C70472DE9F05F04460025A7
:101BD000206846692068D0F80490206887682068EB
:101BE000D0F80CA02068D0F810B02068D0F8188089
:101BF00006F00100002855D007F00100C0B1012017
:101C00002168886007F0020018B1204600F0BFFA92
:101C10000EE007F0040010B145F4006508E007F09D
:101C2000080010B145F4805502E0204600F0AEFAFD
:101C300007F48070C8B14FF480702168886007F4A1
:101C4000007018B1204600F0A4FA0EE007F480609E
:101C500010B145F4005508E007F4006010B145F4F8
:101C6000804502E0204600F093FA07F48030C8B1C6
:101C70004FF480302168886007F4003018B12046A6
:101C800000F089FA0EE007F4802010B145F4004519
:101C900008E007F4002010B145F4803502E020464A
:101CA00000F078FA06F0080038B10AF0100020B110
:101CB00045F4007510202168C86006F0040040B1AA
:101CC0000AF0080028B108202168C860204600F00A
:101CD0001DFA06F0020038B12068C06800F0030069
:101CE00010B1204600F013FA06F0400038B10BF0B6
:101CF000100020B145F4806510202168086106F0CD
:101D0000200040B10BF0080028B1082021680861CC
:101D1000204600F003FA06F0100038B12068006990
:101D200000F0030010B1204600F0F9F906F400308D
:101D300040B109F0100028B1102021684860204609
:101D400000F0F4F906F4803040B109F0080028B141
:101D5000082021684860204600F01EFA06F4004082
:101D600088B309F0040078B306F4807020B108F05D
:101D7000010008B145F0010506F4007020B108F03B
:101D8000020008B145F0020506F4806020B108F0B9
:101D9000040008B145F0040506F40060A0B108F0A5
:101DA000700088B108F07000402817D006DC1028B9
:101DB0000BD020280CD0302819D10CE0502810D09E
:101DC000602814D110E01DE019E045F008050FE08F
:101DD00045F010050CE045F0200509E045F0400510
:101DE00006E045F0800503E045F4807500E000BFA3
:101DF00000BF2068806920F070002168886104209D
:101E0000216848602DB1606A284360622046FFF770
:101E1000E1FDBDE8F09F70B504460CB9012070BD2E
:101E200094F8200010B9204600F0B0F8206800684F
:101E300040F001002168086000F0A4FC05460DE0B8
:101E400000F0A0FC401B0A2808D9606A40F400306A
:101E50006062052084F820000120E0E720684068E7
:101E600000F001000028EBD02068006820F002009C
:101E70002168086000F086FC05460DE000F082FC59
:101E8000401B0A2808D9606A40F4003060620520CF
:101E900084F820000120C2E72068406800F00200BA
:101EA0000028EBD1207E012806D12068006840F090
:101EB00080002168086005E02068006820F080004C
:101EC00021680860607E012806D12068006840F023
:101ED00040002168086005E02068006820F04000AC
:101EE00021680860A07E012806D12068006840F0C3
:101EF00020002168086005E02068006820F02000CC
:101F000021680860E07E012806D12068006820F082
:101F100010002168086005E02068006840F01000AB
:101F200021680860207F012806D12068006840F001
:101F300008002168086005E02068006820F00800BB
:101F400021680860607F012806D12068006840F0A1
:101F500004002168086005E02068006820F00400A3
:101F600021680860D4E902010843216908436169D6
:101F700008436168491E08432168C8610020606207
:101F8000012084F82000002049E7000010B586B049
:101F90000446142101A8FEF7BDF95649206888427D
:101FA00049D155480068401C5349086008460068FC
:101FB00001280FD100BF002000905048006840F079
:101FC00000704E4908600846006800F000700090FC
:101FD00000BF00BF00BF00200090484810380068D4
:101FE00040F008004549103908600846006800F0D4
:101FF0000800009000BF00BF032001900220029063
:1020000000200390032004900920059001A93C487A
:1020100000F0B8FA00220521142000F07BFC142007
:1020200000F064FC00220521152000F073FC15204F
:1020300000F05CFC5CE033492068884258D100BF66
:10204000002000902D48006840F080602B49086017
:102050000846006800F08060009000BF00BF26487E
:102060000068401C244908600846006801280FD118
:1020700000BF002000902148006840F000701F4918
:1020800008600846006800F00070009000BF00BFC4
:1020900000BF0020009019481038006840F002008E
:1020A0001649103908600846006800F002000090E8
:1020B00000BF00BF6020019002200290002003902A
:1020C000032004900920059001A90F4800F05AFA56
:1020D00000220521402000F01DFC402000F006FCFD
:1020E00000220521412000F015FC412000F0FEFBFC
:1020F00006B010BD006400401000002040380240CF
:10210000000C02400068004000040240704710B517
:10211000044600212046FEF70BFC10BD704710B5A9
:10212000044601212046FEF703FC10BD704770B540
:10213000044694F82000012822D1022084F82000CF
:102140002068006820F001002168086000F01AFB98
:1021500005460DE000F016FB401B0A2808D9606A0E
:1021600040F400306062052084F82000012070BD3A
:102170002068406800F001000028EBD16062F6E7BB
:10218000606A40F4002060620120F0E77047704709
:1021900070477047704770477047014691F83500A7
:1021A000022803D08020486501207047052081F86F
:1021B00035000868006820F001000A6810600020FF
:1021C000F3E70000F8B50446002000908C48006852
:1021D0004FF41651B0FBF1F7A56D2E6894F85C1022
:1021E00008208840304098B12068006800F0040062
:1021F00070B12068006820F004002168086094F83D
:102200005C1008208840A860606D40F001006065A7
:1022100094F85C1001208840304068B12068406923
:1022200000F0800040B194F85C1001208840A86064
:10223000606D40F00200606594F85C1004208840F6
:10224000304068B12068006800F0020040B194F8A6
:102250005C1004208840A860606D40F00400606558
:1022600094F85C1010208840304078B320680068F3
:1022700000F0080050B394F85C1010208840A8606B
:102280002068006800F4802080B12068006800F4B5
:10229000002028B9206CC8B12046216C884715E081
:1022A000A06C98B12046A16C88470FE020680068B8
:1022B00000F4807028B92068006820F008002168C8
:1022C0000860206C10B12046216C884794F85C109F
:1022D000202088403040002865D02068006800F049
:1022E000100000285FD094F85C1020208840A8607F
:1022F00094F83500052828D12068006820F01600E1
:10230000216808602068406920F0800021684861E9
:10231000206C08B9A06C28B12068006820F0080083
:102320002168086094F85C103F208840A860012074
:1023300084F8350000BF002084F8340000BF206D11
:1023400010B12046216D8847F8BD2068006800F470
:10235000802080B12068006800F4002028B9606CFB
:1023600010B12046616C88471DE0E06BD8B1204673
:10237000E16B884717E02068006800F4807068B956
:102380002068006820F0100021680860012084F8AF
:10239000350000BF002084F8340000BFE06B10B1AE
:1023A0002046E16B8847606D38B3606D00F0010036
:1023B000F0B1052084F835002068006820F00100A5
:1023C0002168086000BF0098401C0090B84200D906
:1023D00005E02068006800F001000028F3D100BF8C
:1023E000012084F8350000BF002084F8340000BFCD
:1023F000E06C10B12046E16C884700BFA4E7000004
:10240000200000202DE9F0410446002500F0BAF933
:10241000074614B90120BDE8F081606A00B100BF31
:10242000022084F8350000BF002084F8340000BF8B
:102430002068006820F00100216808600AE000F0D0
:10244000A1F9C01B052805D920206065032084F868
:102450003500E0E72068006800F001000028EED1B8
:102460002068056821480540D4E901010843E16876
:1024700008432169084361690843A1690843E16988
:102480000843216A08430543606A042803D1D4E95C
:102490000B0108430543206805602068456925F065
:1024A0000705606A0543606A04280DD1A06A0543E8
:1024B000E06A48B12046FEF7DFFC28B140206065A5
:1024C000012084F83500A6E7206845612046FEF724
:1024D000B9FC064694F85C103F208840B0600020AC
:1024E0006065012084F83500002094E73F8010F0FB
:1024F0002DE9F04704460D4616461F464FF00008EA
:10250000D4F8589000BF94F83400012802D102207A
:10251000BDE8F087012084F8340000BF94F835004E
:10252000012825D1022084F83500002060653B4653
:10253000324629462046FEF7F4FC94F85C103F2012
:102540008840C9F808002068006840F0160021683B
:102550000860206C28B12068006840F008002168FD
:1025600008602068006840F001002168086006E00B
:1025700000BF002084F8340000BF4FF0020840463E
:10258000C6E70000F8B502460B46002500240020EF
:102590000021D6E0012606FA01F51E6806EA0504C8
:1025A000AC4274D11E7906F00306012E04D01E79C8
:1025B00006F00306022E13D190684F000326BE409A
:1025C000B0434F00DE68BE40304390605068012643
:1025D0008E40B0431E79C6F300168E4030435060E3
:1025E0001E7906F00306032E09D0D0684F0003269B
:1025F000BE40B0434F009E68BE403043D0601E795D
:1026000006F00306022E13D1CF0802F1200656F879
:1026100027004E07F70E0F26BE40B0434F07FF0EB0
:102620001E69BE403043CF0802F1200646F827005D
:1026300010684F000326BE40B0431E7906F0030623
:102640004F00BE40304310605E6806F44036002EF6
:1026500076D000BF002600963C4E366846F4804691
:102660003A4F3E603E46366806F48046009600BF0C
:1026700000BF374E8F0856F827008E07370F0F26FA
:10268000BE40B043334EB24202D1002624E057E0B0
:10269000314EB24201D101261EE0304EB24201D18C
:1026A000022619E02E4EB24201D1032614E02D4E2F
:1026B000B24201D104260FE02B4EB24201D10526D1
:1026C0000AE02A4EB24201D1062605E0284EB24267
:1026D00001D1072600E008268F073F0FBE40304398
:1026E0001B4E8F0846F82700224E3068A0435E68D4
:1026F00006F4801606B120431E4E3060361D306849
:10270000A0435E6806F4001606B12043194E361D3C
:102710003060184E361F3068A0435E6806F40036FD
:1027200006B12043134E361F3060361F3068A04379
:102730005E6806F4803606B120430E4E083E3060D7
:10274000491C1029FFF426AFF8BD000044380240B0
:102750000838014000000240000402400008024026
:10276000000C024000100240001402400018024019
:10277000001C0240083C01400AB1816101E00B04E9
:102780008361704701480068704700001400002012
:102790000348006803490978084401490860704704
:1027A000140000201C00002010B50D48006840F403
:1027B00000700B4908600846006840F480600860BB
:1027C0000846006840F480700860032000F0E0F8DC
:1027D0000F2000F007F800F05FF8002010BD0000A7
:1027E000003C02402DE9F04188B004460027B8467D
:1027F00000BF002001902348006840F48070214908
:1028000008600846006800F48070019000BF00BFB7
:1028100002A903A800F092F9069F1FB900F0B6F9CB
:10282000054602E000F0B2F945001748B5FBF0F0AC
:10283000A0F1010815481649086040F2E731144834
:10284000C160C0F80480002101618160816100F0F5
:1028500087FE064696B90E4800F01EFF06466EB982
:102860002D2000F043F8102C07D2002221462D2005
:1028700000F050F80748046000E00126304608B038
:10288000BDE8F0814038024040420F000020004087
:10289000AC0800201800002008B500BF0020009000
:1028A0001148006840F480400F49086008460068FD
:1028B00000F48040009000BF00BF00BF00200090E7
:1028C000081F006840F08050091F08600846006833
:1028D00000F08050009000BF00BF00220F21901E2A
:1028E00000F018F808BD00004438024001460846D0
:1028F00000280DDB00BF00BF00F01F0301229A403B
:1029000043099B0003F1E023C3F8002100BF00BF8F
:1029100000BF70472DE9F05F80460D461646002740
:1029200002F05AFE074639462A46334601F00700B0
:10293000C0F1070ABAF1040F02D94FF0040A01E00E
:10294000C0F1070AD14600F1040ABAF1070F02D21A
:102950004FF0000A01E0A0F1030AD4464FF0010A4B
:102960000AFA09FAAAF1010A0AEA020A0AFA0CFAB0
:102970004FF0010B0BFA0CFBABF1010B0BEA030B55
:102980004AEA0B042146404602F02EFEBDE8F09FC5
:1029900000BF00F00702064B19684FF6FF0319400D
:1029A000044B0B4343EA0221014B196000BF7047FF
:1029B0000CED00E00000FA0570B504460D460CB9B8
:1029C000012070BD5848006800F00700A84209D2F5
:1029D00055490D700846006800F00700A84201D074
:1029E0000120EEE7207800F0020002281DD12078B7
:1029F00000F00400042805D14C48006840F4E05081
:102A00004A490860207800F00800082805D14748A6
:102A1000006840F46040454908604448006820F080
:102A2000F000A168084341490860207800F00100E7
:102A3000A8B36068012807D13C4808380068C0F393
:102A40004040B8B90120BCE76068022802D0606845
:102A5000032807D1354808380068C0F3406048B9FA
:102A60000120AEE7314808380068C0F3400008B9DB
:102A70000120A6E72D48006820F0030061680843A4
:102A80002A490860FFF77EFE064609E0FFF77AFE56
:102A9000801B41F28831884202D9032091E707E088
:102AA0002248006800F00C006168B0EB810FEDD1A6
:102AB0001D48006800F00700A84209D91A490D70A6
:102AC0000846006800F00700A84201D0012078E71E
:102AD000207800F00400042807D11448006820F48E
:102AE000E050E168084311490860207800F00800D0
:102AF000082808D10D48006820F46040216940EAA8
:102B0000C1000A49086000F061F808490968C1F38A
:102B10000311074A515CC84006490860064800682E
:102B2000FFF760FE00204CE7003C024008380240FE
:102B30005C73000820000020180000200F220260B3
:102B40000D4A126802F0030242600B4A126802F05A
:102B5000F0028260084A126802F4E052C260064A3B
:102B6000126802F46042D2080261044A126802F05C
:102B700007020A607047000008380240003C02402B
:102B800001480068704700002000002000B5FFF7F2
:102B9000F7FF04490968C1F38221034A515CC84028
:102BA00000BD0000083802406C73000800B5FFF754
:102BB000E7FF04490968C1F34231034A515CC84048
:102BC00000BD0000083802406C7300082DE9F04792
:102BD000002400250026A1462548006800F00C00CE
:102BE00020B1042805D008283AD105E0DFF8849008
:102BF00039E0DFF8849036E01D48001F006800F0DF
:102C00003F041B48001F006800F4800078B11A4898
:102C10001749091F0968C1F38811A0FB017001461B
:102C2000224600233846FDF72BFB05460EE01148EF
:102C30000F49091F0968C1F38811A0FB0170014603
:102C4000224600233846FDF71BFB05460848001FB7
:102C50000068C0F30140401C4600B5FBF6F902E0F5
:102C6000DFF8109000BF00BF4846BDE8F0870000C5
:102C7000083802400024F40040787D01F8B504468D
:102C80000CB90120F8BD207800F00100002874D0B4
:102C9000F948006800F00C0004280DD0F6480068E0
:102CA00000F00C00082813D1F348001F006800F45E
:102CB0008000B0F5800F0BD1EF4808380068C0F3F2
:102CC0004040002859D06068002856D10120D9E73B
:102CD00000BF6068B0F5803F08D1E7480838006859
:102CE00040F48030E449083908601EE06068B0F5BF
:102CF000A02F0DD1E0480838006840F48020DE495C
:102D0000083908600846006840F4803008600CE02C
:102D1000D9480838006820F48030D749083908605D
:102D20000846006820F48020086000BF606890B109
:102D3000FFF728FD054606E0FFF724FD401B642849
:102D400001D903209EE7CC4808380068C0F3404012
:102D50000028F1D011E0FFF715FD054606E0FFF76A
:102D600011FD401B642801D903208BE7C2480838B5
:102D70000068C0F340400028F1D1207800F0020044
:102D800002285FD1BC48006800F00C0058B1BA4876
:102D9000006800F00C0008281CD1B748001F00682C
:102DA00000F48000B0B9B44808380068C0F34000AF
:102DB00020B1E068012801D0012063E7AE4808385F
:102DC000006820F0F800216940EAC100AA490839EA
:102DD000086037E0E06800B30120A8490860FFF709
:102DE000D1FC054606E0FFF7CDFC401B022801D9C7
:102DF000032047E7A04808380068C0F340000028D7
:102E0000F1D09D480838006820F0F800216940EAB8
:102E1000C10099490839086014E00020974908600A
:102E2000FFF7B0FC054606E0FFF7ACFC401B0228AC
:102E300001D9032026E7904808380068C0F3400015
:102E40000028F1D1207800F0080008282CD1606912
:102E5000A8B101208A490860FFF794FC054606E006
:102E6000FFF790FC401B022801D903200AE78248A3
:102E70006C300068C0F340000028F1D014E000205E
:102E80007F490860FFF77EFC054606E0FFF77AFC05
:102E9000401B022801D90320F4E677486C30006813
:102EA000C0F340000028F1D1207800F0040004288D
:102EB00070D1002770483830006800F0805090B919
:102EC00000BF002000906C483830006840F080500F
:102ED0006949383108600846006800F08050009069
:102EE00000BF00BF01276748006800F48070B0B9D8
:102EF0006448006840F4807062490860FFF742FC53
:102F0000054606E0FFF73EFC401B022801D90320DE
:102F1000B8E65C48006800F480700028F2D000BF7A
:102F2000A068012808D154486830006840F00100CA
:102F30005149683108601DE0A06805280DD14E4850
:102F40006830006840F004004B496831086008466A
:102F5000006840F0010008600CE0474868300068F5
:102F600020F001004449683108600846006820F0FC
:102F70000400086000BFA068A8B1FFF703FC054685
:102F800009E0FFF7FFFB401B41F28831884202D97C
:102F9000032077E626E0384868300068C0F3400038
:102FA0000028EED013E0FFF7EDFB054608E0FFF741
:102FB000E9FB401B41F28831884201D9032061E6D8
:102FC0002D4868300068C0F340000028EFD1012F81
:102FD00007D129483830006820F080502649383120
:102FE000086000BFA069002845D02348006800F0B1
:102FF0000C0008285DD0A069022845D100201F4997
:103000000866FFF7BFFB054606E0FFF7BBFB401B6A
:10301000022801D9032035E6174808380068C0F3B4
:1030200040600028F1D1D4E907010843616A40EA11
:1030300081110122A06AC2EB500041EA00412C201C
:10304000005D41EA00600C49091F086001200B493E
:103050000866FFF797FB054606E0FFF793FB401B6A
:10306000022801D903200DE6034808380068C0F3A0
:1030700040600028F1D049E0083802400000474293
:10308000800E474200700040002021490866FFF78B
:1030900079FB054606E0FFF775FB401B022801D9C6
:1030A0000320EFE51B480068C0F340600028F2D120
:1030B0002CE0A069012800D1E4E51648001D06684F
:1030C000A069012820D006F48001E06981421BD16B
:1030D00006F03F01206A814216D147F6C0703040A9
:1030E000616AB0EB811F0FD106F440310122A06A62
:1030F000C2EB5000B1EB004F06D106F070612C20FE
:10310000005DB1EB006F01D00120BBE50020B9E507
:10311000000047420038024070470000F8B50446FE
:103120002068466820688568C5F3801048B905F0B6
:10313000010030B1C6F3801018B12046216C8847D9
:10314000F8BDC5F3400030B1C6F3C01018B1204639
:10315000616C8847F4E7C5F3401030B9C5F38010BF
:1031600018B9C5F3002000287CD0C6F34010002811
:103170007DD0C5F38010F0B194F8510003280ED033
:10318000606D40F00400606500BF00200090206882
:10319000C068009020688068009000BF0BE000BF0E
:1031A000002000902068C06800902068806800902F
:1031B00000BF00BFC4E7C5F3401088B1606D40F0A8
:1031C0000100606500BF00200090206880680090CA
:1031D0002068006820F040002168086000BF00BF40
:1031E000C5F3002058B1606D40F00800606500BF75
:1031F0000020009020688068009000BF00BF606DD4
:1032000078B32068406820F0E00021684860012021
:1032100084F8510006F00200022802D006F00100F6
:1032200008B32068406820F0030021684860E06C23
:1032300050B11048E16C0865E06CFEF7AEFF18B1C4
:10324000606D40F040006065A06C50B10948A16C11
:103250000865A06CFEF7A1FF18B1606D40F040005A
:10326000606503E003E02046FFF756FF68E700BF14
:1032700066E700005D4B000810B504460CB901205C
:1032800010BD606A38B96068B0F5827F00D105E092
:103290000021E16102E00021216161610021A16260
:1032A00094F8510028B9002084F85000204600F01E
:1032B00047F8022084F851002068006820F04000A0
:1032C00021680860A08800F48270218901F404411B
:1032D0000843A18901F400610843217C01F0020147
:1032E0000843217D01F001010843218B01F40071A5
:1032F0000843217F01F0380108432021095D01F0D6
:1033000080010843218D01F40051084321680860C1
:103310000421A06901EA104094F8241001F0100182
:103320000843216848602068C06920F40060216873
:10333000C86100206065012084F8510000209FE7EB
:1033400010B586B00446142101A8FCF7E3FF4F49ED
:10335000206888427ED100BF002000904C48006861
:1033600040F480504A4908600846006800F48050E4
:10337000009000BF00BF00BF0020009044481438F8
:10338000006840F0020042491439086008460068AD
:1033900000F00200009000BF00BF00BF00200090BE
:1033A0000846006840F0010008600846006800F028
:1033B0000100009000BF00BF182001900220029081
:1033C00001200390032004900520059001A93148B5
:1033D000FFF7D8F88020019002200290012003908E
:1033E000032004900520059001A92B48FFF7CAF897
:1033F0002A482B4908604FF0C060486000212848E7
:103400008160C1604FF4806101610021416181618F
:10341000C161016204214162032181620021C16214
:103420000163FEF7EFFF08B1FDF787FF00BF1C48FF
:10343000E064846300BF194848301A4908604FF0BF
:10344000C06048604021174881600021C1604FF48E
:10345000806100E018E00161002141618161C1618A
:1034600001624162FEF7CEFF08B1FDF766FF00BFC3
:103470000C48A064846300BF002205212320FFF7CD
:1034800049FA2320FFF732FA06B010BD00300140A0
:103490004438024000040240000002401064024030
:1034A0000C0600206C0600207047704730B50246BD
:1034B0000B4600BF92F83C00012801D1022030BD2C
:1034C000012082F83C0000BF022082F83D00106815
:1034D00044681068816824F0700418680443106818
:1034E0004460184D1068A8421BD01068B0F1804F9E
:1034F00017D0154D1068A84213D0144D1068A8427B
:103500000FD0134D1068A8420BD0124D1068A8427E
:1035100007D0114D1068A84203D0104D1068A84282
:1035200005D121F0800158680143106881600120B5
:1035300082F83D0000BF002082F83C0000BF00BFC1
:10354000BDE700000000014000040040000800400A
:10355000000C004000040140004001400018004001
:1035600010B504460CB9012010BD94F83D0028B9EF
:10357000002084F83C00204600F026F8022084F861
:103580003D00211D206801F089FB012084F84600E0
:1035900000BF84F83E0001213F2001554020015525
:1035A0004120015500BF00BF012084F842004320A4
:1035B0000155442001554520015500BF012084F8E4
:1035C0003D000020D0E7000008B50A4A016891429A
:1035D0000FD100BF002100910749096841F4003173
:1035E000054A11601146096801F40031009100BFDD
:1035F00000BF08BD0044014044380240014691F834
:103600003D00012801D001207047022081F83D00D3
:103610001A4B086898421BD00868B0F1804F17D049
:10362000174B0868984213D0164B086898420FD081
:10363000154B086898420BD0144B0868984207D085
:10364000134B0868984203D0124B086898420CD17B
:103650000868806800F00702062A0CD00868006835
:1036600040F001000B68186005E00868006840F051
:1036700001000B6818600020C6E700000000014050
:103680000004004000080040000C0040000401401D
:103690000040014000180040014691F83D0001281B
:1036A00001D001207047022081F83D000868C06801
:1036B00040F001000B68D8601A4B086898421BD094
:1036C0000868B0F1804F17D0174B0868984213D0A4
:1036D000164B086898420FD0154B086898420BD0DB
:1036E000144B0868984207D0134B0868984203D0DF
:1036F000124B086898420CD10868806800F00702F5
:10370000062A0CD00868006840F001000B681860B9
:1037100005E00868006840F001000B6818600020B0
:10372000C0E7000000000140000400400008004025
:10373000000C00400004014000400140001800401F
:10374000704770B504462068C5682068066906F0B1
:103750000200022819D105F00200022815D1401FED
:1037600021680861012020772068806900F003004B
:1037700018B12046FFF7E4FF05E0204600F0F0F81E
:10378000204600F0BDF90020207706F00400042850
:1037900019D105F00400042815D1C043216808613F
:1037A000022020772068806900F4407018B120461C
:1037B000FFF7C6FF05E0204600F0D2F8204600F0F3
:1037C0009FF90020207706F00800082819D105F09D
:1037D0000800082815D1C04321680861042020771B
:1037E0002068C06900F0030018B12046FFF7A8FF69
:1037F00005E0204600F0B4F8204600F081F90020F2
:10380000207706F01000102819D105F010001028BC
:1038100015D1C04321680861082020772068C0695D
:1038200000F4407018B12046FFF78AFF05E02046FB
:1038300000F096F8204600F063F90020207706F0AB
:10384000010048B105F0010030B16FF001002168BE
:103850000861204600F0DCF906F08000802809D1DC
:1038600005F08000802805D1C0432168086120460A
:10387000FFF71AFE06F04000402809D105F040008D
:10388000402805D1C04321680861204600F0CCF9EA
:1038900006F02000202809D105F02000202805D1BD
:1038A000C043216808612046FFF7FFFD70BD00009E
:1038B00010B586B00446142101A8FCF72BFD23495E
:1038C000206888421ED100BF002000902048006878
:1038D00040F008001E4908600846006800F0080033
:1038E000009000BF00BF4FF4804001900220029082
:1038F0000020039002200490059001A91548FEF7CE
:1039000041FE20E01449206888421CD100BF0020FD
:1039100000900F48006840F020000D4908600846FC
:10392000006800F02000009000BF00BF4020019020
:10393000022002900020039004900320059001A92A
:103940000648FEF71FFE06B010BD0000000800404C
:1039500030380240000C0240004401400014024094
:1039600070472DE9F04104460D461646002700BF7A
:1039700094F83C00012802D10220BDE8F08101202A
:1039800084F83C0000BF36B1042E1BD0082E31D085
:103990000C2E5ED145E02946206801F001FA20682E
:1039A000806940F00800216888612068806920F003
:1039B00004002168886120688069296908432168BA
:1039C000886148E02946206801F022FA2068806971
:1039D00040F40060216888612068806920F480607C
:1039E0002168886120688069296940EA012021688E
:1039F000886130E02946206801F048FA2068C069F3
:103A000040F008002168C8612068C06920F0040007
:103A10002168C8612068C069296908432168C861B4
:103A200019E02946206801F06DFA2068C06940F469
:103A300000602168C8612068C06920F48060216846
:103A4000C8612068C069296940EA01202168C8610D
:103A500001E0012700BF00BF00BF002084F83C0048
:103A600000BF384689E710B504460CB9012010BDE7
:103A700094F83D0028B9002084F83C00204600F06E
:103A800025F8022084F83D00211D206801F006F988
:103A9000012084F8460000BF84F83E0001213F2049
:103AA0000155402001554120015500BF00BF0120B4
:103AB00084F842004320015544200155452001551A
:103AC00000BF012084F83D000020D0E708B50A4A75
:103AD000016891420FD100BF002100910749096898
:103AE00041F00401054A11601146096801F0040122
:103AF000009100BF00BF08BD0008004040380240F0
:103B00007047000070B504460D4615B994F83E00A4
:103B10000BE0042D02D13F20005D06E0082D02D10C
:103B20004020005D01E04120005D012801D001201E
:103B300070BD1DB9022084F83E000EE0042D03D1B3
:103B400002213F20015508E0082D03D10221402029
:103B5000015502E002214120015501222946206839
:103B600001F00CF923492068884203D022492068DB
:103B7000884201D1012000E0002028B12068406C7B
:103B800040F40040216848641A49206888421BD0EC
:103B90002068B0F1804F17D018492068884213D0B0
:103BA0001749206888420FD01649206888420BD0F8
:103BB00011492068884207D013492068884203D001
:103BC0001249206888420CD12068806800F00706FE
:103BD000062E0CD02068006840F0010021680860C3
:103BE00005E02068006840F00100216808600020BE
:103BF0009EE7000000000140000401400004004076
:103C000000080040000C0040004001400018004047
:103C100010B5044603492068884201D1FEF7B8FD7B
:103C200010BD0000002000407047F8B504460D4666
:103C3000164694F8420020282DD105B10EB9012076
:103C4000F8BD0120206300206063324629462046EB
:103C500001F0A8FB0746206B012819D100BF002006
:103C6000009020680068009020684068009000BFC5
:103C700000BF00BF00BF21680C3151E8001F41F0B8
:103C8000100021680C3141E80002002AF3D100E065
:103C900001273846D4E70220D2E7000070B5054678
:103CA0000E4600243BE0214850F82400D0F80001E3
:103CB000A84232D11D4850F82400D0F8040158B170
:103CC0001A4951F82410D1F804018047174951F8D6
:103CD00024003146FCF71EFB144B53F8243093F8B4
:103CE000FF20124B53F8241053F82430D3F800016E
:103CF000FFF79BFF0D4850F82400D0F80001C06B7F
:103D00000068006820F00800084951F82410D1F834
:103D10000011C96B0968086070BD601CC4B204481A
:103D200000788442BFDB00BFF6E7000050090020A6
:103D30007800002070B50546002429E0174850F8A7
:103D40002400D0F80001A84220D1144B53F82430AD
:103D500093F8FF20114B53F8241053F82430D3F874
:103D60000001FFF762FF0D4850F82400D0F8000171
:103D7000C06B0068006820F00800084951F8241062
:103D8000D1F80011C96B0968086070BD601CC4B22D
:103D9000034800788442D1DB00BFF6E750090020D9
:103DA0007800002010B504460CB9012010BDA069B0
:103DB00000B100E000BF94F8410028B9002084F869
:103DC0004000204600F02AF8242084F841002068B2
:103DD000C06820F400502168C860204601F0CCF98A
:103DE0002068006920F490402168086120684069DB
:103DF00020F02A00216848612068C06840F4005023
:103E00002168C86000206064202084F8410084F8A4
:103E100042000020606300BFC8E7000010B586B014
:103E20000446142101A8FCF775FA66492068884207
:103E30006ED100BF002000906348006840F0100081
:103E4000614908600846006800F01000009000BF5B
:103E500000BF00BF002000905B481438006840F0AD
:103E600002005949143908600846006800F0020051
:103E7000009000BF00BF00BF00200090084600680F
:103E800040F0010008600846006800F00100009062
:103E900000BF00BF8020019002200290002003900C
:103EA000032004900720059001A94848FEF76AFB0B
:103EB0004FF4007001900220029000200390032034
:103EC00004900720059001A94148FEF75BFB41489B
:103ED000414908604FF00060486000213E48816021
:103EE000C1604FF4806101610021416181614FF443
:103EF0008071C1614902016200214162FEF782FACC
:103F000008B1FDF71AFA00BF3348E063846357E055
:103F100032492068884253D100BF002000902A48CF
:103F2000001F006840F480202749091F08600846E8
:103F3000006800F48020009000BF00BF00BF002098
:103F4000009021481438006840F004001E491439DC
:103F500008600846006800F00400009000BF00BF41
:103F60004FF4406001900220029000200390032053
:103F700004900720059001A91948FEF703FB194892
:103F8000194908604FF000604860002116488160C0
:103F9000C1604FF4806101610021416181614FF492
:103FA0008071C1614902016200214162FEF72AFA73
:103FB00008B1FDF7C2F900BF0B48E063846300BF9E
:103FC00006B010BD00100140443802400004024019
:103FD0000000024040640240EC070020004800401E
:103FE00000080240286002404C08002070477047DB
:103FF0002DE9F84F04460E46174699464FF0000A41
:1040000094F84100202850D106B117B90120BDE82D
:10401000F88F00206064212084F84100FEF7B2FB95
:104020008246A784E784A068B0F5805F04D1206948
:1040300010B90025B04602E035464FF000081EE0FA
:104040005346002280212046CDF8009001F016FA58
:1040500020B1202084F841000320D8E745B9B8F802
:104060000000C0F308002168486008F1020803E07E
:104070002878216848606D1CE08C401EE084E08C4C
:104080000028DDD15346002240212046CDF8009083
:1040900001F0F4F920B1202084F841000320B6E7B4
:1040A000202084F841000020B1E70220AFE70000A3
:1040B000F7B50446154694F8410020283ED10198F2
:1040C00000B10DB90120FEBD01982062A584E584F0
:1040D00000206064212084F841001948A16BC86366
:1040E0001848A16B08641848A16BC8640020A16B34
:1040F000086501AE23681A1D31682B46A06BFEF7D8
:10410000F7F930B110206064202084F841000120CC
:10411000D9E76FF040002168086000BF00BF216848
:10412000143151E8001F41F080002168143141E84A
:104130000002002AF3D100BF0020C4E70220C2E73A
:1041400081500008D9500008594F000810B50346A7
:1041500093F84100202813D101B10AB9012010BD04
:1041600019629A84DA8400205864212083F841007F
:104170001868C06840F080001C68E0600020EEE72E
:104180000220ECE77047704700BFFEE700BF02F077
:1041900009FC012002F006F8F9E7000010B50E480E
:1041A0000E4908600320486000210C488160C1600E
:1041B0004FF4102101614FF400114161002101769B
:1041C00041768176C17601774177FDF724FE08B10B
:1041D000FDF7B3F810BD0000006400406405002046
:1041E00010B50E480E4908600320486000210C48B5
:1041F0008160C1604FF4102101614FF400114161F1
:104200000021017641768176C17601774177FDF70D
:1042100002FE08B1FDF791F810BD000000680040F3
:104220008C05002008B500BF002000901E480068E3
:1042300040F400101C4908600846006800F40010B3
:10424000009000BF00BF00BF00200090084600683B
:1042500040F4800008600846006800F48000009088
:1042600000BF00BF002205210C20FEF753FB0C20ED
:10427000FEF73CFB002205213820FEF74BFB3820DF
:10428000FEF734FB002205213A20FEF743FB3A20DB
:10429000FEF72CFB002205213B20FEF73BFB3B20D9
:1042A000FEF724FB08BD00003038024000B59DB089
:1042B0001C22184916A8FCF714F8002116A801F0D2
:1042C00082FF154908601C2212491C310FA8FCF717
:1042D00008F800210FA801F076FF104908601C22A1
:1042E0000C49383108A8FBF7FCFF002108A801F0B1
:1042F0006AFF0B4908601C220649543101A8FBF7EC
:10430000F0FF002101A801F05EFF064908601DB022
:1043100000BD0000E472000800000020040000203E
:10432000080000200C00002000B587B0142102A86E
:10433000FBF7F0FF00BF002001907848006840F0D4
:104340000200764908600846006800F0020001900B
:1043500000BF00BF00BF002001900846006840F089
:10436000010008600846006800F00100019000BFED
:1043700000BF00BF002001900846006840F0080020
:1043800008600846006800F00800019000BF00BF08
:1043900000BF002001900846006840F0040008605B
:1043A0000846006800F00400019000BF00BF00BF95
:1043B000002001900846006840F020000860084690
:1043C000006800F02000019000BF00BF00BF002087
:1043D00001900846006840F08000086008460068C8
:1043E00000F08000019000BF00BF00BF00200190DE
:1043F0000846006840F0100008600846006800F0B9
:104400001000019000BF00BF002203214448FEF7C6
:10441000B3F900224FF480614248FEF7ADF9012262
:1044200010214148FEF7A8F900224FF420613F48CF
:10443000FEF7A2F900224FF440513D48FEF79CF9E7
:10444000012211463A48FEF797F903200290012015
:10445000039000200490059002A93148FEF792F8DD
:104460004FF480600290012003900020049005909A
:1044700002A92C48FEF786F8012002900020039044
:10448000049002A92848FEF77DF810200290012030
:10449000039004900220059002A92348FEF772F8C9
:1044A000302002904FF4041003900020049002A9E1
:1044B0002048FEF767F84FF4206002900120039037
:1044C00000200490059002A91848FEF75BF84FF40D
:1044D000405002900120039000200490059002A912
:1044E0001348FEF74FF80120029003900490022039
:1044F000059002A90E48FEF745F84FF4404002909F
:1045000002200390002004900320059005200690CF
:1045100002A90748FEF736F807B000BD3038024060
:1045200000140240001C0240000002400010024043
:10453000000402400008024010B50F480F4908600F
:104540004FF48270486000210C488160C1600221F4
:10455000016101214161490281611021C161002194
:104560000162416281620A21C162FEF785FE08B1E3
:10457000FCF7E3FE10BD000000300140B405002050
:1045800000B587B01C216846FBF7C4FE15481649E4
:104590000860A72048600021134881604CF2503128
:1045A000C160002101618161FEF7DAFF08B1FCF70B
:1045B000C4FE0D48FFF757FA08B1FCF7BEFE6020B5
:1045C0000090002001900290049000226946064865
:1045D000FFF7C7F908B1FCF7B0FE0348FFF768F929
:1045E00007B000BD004401401407002000B589B0A9
:1045F0000020079008901C216846FBF78BFE1848A6
:10460000184908600020486000211648816040F287
:10461000E731C160002101618161FFF724FA08B12F
:10462000FCF78BFE00200790089007A90D48FEF7C5
:104630003DFF08B1FCF781FE602000900020019052
:1046400002900490082269460648FFF78AF908B1EB
:10465000FCF773FE0348FFF72BF909B000BD00001B
:1046600000080040CC06002010B50B480B4908603C
:104670004FF4E1304860002108488160C160016169
:104680000C21416100218161C161FFF78BFB08B101
:10469000FCF753FE10BD0000001001405C07002035
:1046A00010B50B480B4908600B48486000210948C9
:1046B0008160C1604FF4806101610C214161002182
:1046C0008161C161FFF76EFB08B1FCF736FE10BDDA
:1046D00000480040A4070020A086010000BFFEE7BC
:1046E000F0B502460D796D1EE8B292F8AE51012D7B
:1046F00049D0022D02D0032D7ED100BF042809DA53
:104700000346464E0D68B54201D1012500E004255F
:104710002C4609E0051FEBB2404E0D68B54201D1B1
:10472000002500E003252C4600F201258D600125BF
:104730003B4E355582F8AD3182F8AC4100251DE085
:10474000384E56F82560D6F8A86136680F68BE4224
:1047500012D1344E56F82560D6F8A861766B8F6872
:10476000BE4209D1DFF8B4C00F68674501D1012707
:1047700000E002273E4600BF6E1CF5B22A4E367896
:10478000B542DDDB47E0042809DA0346234E0D6815
:10479000B54201D1002500E003252C4609E0051FA4
:1047A000EBB21E4E0D68B54201D1022500E0052591
:1047B0002C4600F205258D600125194E355582F8ED
:1047C000AD3182F8AC4100251FE0164E56F8256049
:1047D000D6F8A86136680F68BE4214D1114E56F85B
:1047E0002560D6F8A861766B8F68BE420BD1DFF8E2
:1047F0002CC00F68674500E00CE001D1012700E004
:1048000002273E4600BF6E1CF5B2074E3678B54211
:10481000DBDB00E000BF00BFF0BD0000640500204E
:104820000B0200205C0900208400002000BFFEE78E
:1048300010B588B004460C2001F07EFC1A490860CF
:1048400008460068002101604160816017480790B8
:1048500007208DF81400069405A800F055FE1249B3
:104860000968886012480068049004A800F02EF8D7
:104870000D49096808600E48001D0068039003A8F0
:1048800000F04CF8084909684860094A083207CA2C
:104890008DE807006846FCF76FFC0649086002488F
:1048A0000068006808B010BD14020020ED12000876
:1048B000807300081C02002010B5044602490968F4
:1048C000886800F070FE10BD1402002070B5054627
:1048D000102001F031FC0446002020606060A060E0
:1048E000E0602878207068782073204670BD000052
:1048F00010B504460749096822464868064900F091
:1049000037F90449096801230C228868024900F03C
:1049100023FE10BD140200200C0A002070B50546CD
:10492000032001F009FC044600202080A0702878B4
:1049300020706878A070204670BD000010B52DED85
:10494000028B0446B0EE408AF0EE608A5A496069F4
:10495000084010B1204601F037F904F16000FCF77F
:104960001DFB84ED190A84ED0B8AC4ED178A94EDC2
:10497000170AD4ED0B0A30EE600A84ED0D0A94EDAF
:104980000D0AB5EEC00AF1EE10FA02DD94ED0D0A43
:1049900003E094ED0D0AB1EE400AD4ED040AB4EE42
:1049A000E00AF1EE10FA65DD94ED000AD4ED0D0A8F
:1049B00020EE200A84ED100A94ED010AD4ED0D0AD0
:1049C00020EE200AD4ED190A20EE200A84ED130A05
:1049D00094ED0D0AD4ED0E0A30EE600AD4ED020A11
:1049E00020EE200AD4ED190A80EE201A84ED121A66
:1049F000207D00F0400010B1204601F043F9A08A6C
:104A000000F4004010B1204600F09EFF207D00F031
:104A1000080010B1204601F01CF8606900F4802005
:104A200010B1204600F0F4FF207D00F0010010B12D
:104A3000204601F01FF894ED110AD4ED130A30EE70
:104A4000200A84ED110A94ED100AD4ED110A30EE1B
:104A5000200AD4ED120A30EE200A84ED140AA08A4E
:104A600000F4805010B1204601F06EF8204601F0AD
:104A70008CF807E09FED110A84ED140A9FED0F0AF0
:104A800084ED130A94ED0B0A84ED0C0A94ED140ADC
:104A900084ED150A94ED120A84ED160A94ED0D0AC0
:104AA00084ED0E0A94ED130A84ED0F0A94ED140AB6
:104AB000BDEC028B10BD0000809698000000000045
:104AC00070B504460D4695ED000A84ED000A95ED9B
:104AD000010A84ED010A95ED020A84ED020A95EDC2
:104AE000030A84ED030A95ED040A84ED040A68695B
:104AF000606195ED060A84ED060A95ED070A84EDDE
:104B0000070A95ED080A84ED080A95ED090A84ED77
:104B1000090A95ED0A0A84ED0A0A04F16000FCF71F
:104B20003DFA70BD8A784B7842EA032212B2428085
:104B30000A79CB7842EA032212B282804A798260F3
:104B4000704710B5A820FCF777FA10BD10B50248E1
:104B5000FEF7E4FA10BD0000B405002070B505466C
:104B6000AC6B0020E087E0862046FEF7D5FA70BDEA
:104B700003780B704A7083788B70704700BFFBF727
:104B800037FE012001F00EFBF9E7000010B500BF71
:104B9000502080F31188BFF34F8FBFF36F8F00BF9A
:104BA00002F07AFA18B14FF080500449086000BF53
:104BB000002080F3118800BF10BD000004ED00E06C
:104BC00000B593B0302107A8FBF7A4FB142102A87D
:104BD000FBF7A0FB00BF002001902548006840F0D3
:104BE0008050234908600846006800F0805001901A
:104BF00000BF00BF00BF002001901E48006840F4C5
:104C000080401C4908600846006800F4804001901C
:104C100000BF00BF0220079001200A9010200B90D7
:104C200002200D9000210E9108210F91A8211091D2
:104C3000022111910421129107A8FEF71FF808B173
:104C4000FCF77BFB0F2002900220039000200490D1
:104C50004FF4A05005904FF480500690052102A813
:104C6000FDF7AAFE08B1FCF768FB13B000BD000019
:104C700040380240007000400348006840F4700073
:104C8000014908607047000088ED00E010B5024857
:104C9000FEF757FD10BD0000AC08002010B50268FB
:104CA0002B4B98420ED0B0F1804F0BD0294B98423D
:104CB00008D0294B984205D0284B984202D0284B67
:104CC000984203D122F070024B681A43204B98425D
:104CD00020D0B0F1804F1DD01E4B98421AD01E4BF1
:104CE000984217D01D4B984214D01D4B984211D0BA
:104CF0001C4B98420ED01C4B98420BD01B4B984239
:104D000008D01B4B984205D01A4B984202D01A4B40
:104D1000984203D122F44072CB681A4322F08003F8
:104D20004C6943EA04028B68C3620B688362084BD8
:104D3000984202D00A4B984201D10B690363036881
:104D400043F00403036001234361026010BD0000CF
:104D5000000001400004004000080040000C00403A
:104D6000000401400040014000440140004801406F
:104D700000180040001C00400020004030B501F049
:104D80001F05012404FA05F3046A9C430462046AC3
:104D900001F01F0502FA05F52C43046230BD000046
:104DA00030B5026A056A25F0010505624368846929
:104DB00024F0700424F003040D682C4322F0020256
:104DC0008D682A43104DA84200D103E00F4DA84240
:104DD00006D100BF22F00802CD682A4322F0040267
:104DE000094DA84202D0094DA84207D123F480738F
:104DF00023F400734D692B438D692B434360846119
:104E00004D684563026230BD00000140000401406E
:104E100030B5026A056A25F01005056243688469A9
:104E200024F4E04424F440740D6844EA052422F09C
:104E300020028D6842EA0512124DA84200D103E01B
:104E4000114DA84207D100BF22F08002CD6842EA8E
:104E5000051222F040020B4DA84202D00A4DA84292
:104E600009D123F4806323F400634D6943EA850389
:104E70008D6943EA8503436084614D6885630262FE
:104E800030BD0000000001400004014030B5026A5E
:104E9000056A25F4807505624368C46924F07004CE
:104EA00024F003040D682C4322F400728D6842EA5A
:104EB0000522124DA84200D103E0114DA84207D1AE
:104EC00000BF22F40062CD6842EA052222F480622B
:104ED0000A4DA84202D00A4DA84209D123F48053BA
:104EE00023F400534D6943EA05138D6943EA051322
:104EF0004360C4614D68C563026230BD000001407B
:104F00000004014030B5036A056A25F48055056246
:104F10004468C26922F4E04222F440720D6842EA19
:104F2000052223F400538D6843EA0533084DA84257
:104F300002D0084DA84204D124F480444D6944EACB
:104F400085144460C2614D680564036230BD000091
:104F5000000001400004014070B506460025B46B16
:104F600020684069C0F3C01594F84100212805D19C
:104F700025B10020E084204600F0EBF8206840696D
:104F8000C0F3801594F84200222805D125B10020F5
:104F9000E085204600F0A7F8606C40F010006064E7
:104FA0002046FEF7C7FE70BD70B50546AC6B28689D
:104FB000006800F48070002842D1E08500BF00BF87
:104FC00021680C3151E8001F21F4807021680C31F8
:104FD00041E80002002AF3D100BF00BF00BF2168F2
:104FE000143151E8001F21F001002168143141E81B
:104FF0000002002AF3D100BF00BF00BF21681431B6
:1050000051E8001F21F040002168143141E80002FE
:10501000002AF3D100BF202084F84200206B012831
:105020000ED100BF00BF21680C3151E8001F21F0F4
:10503000100021680C3141E80002002AF3D100BFC2
:1050400000206063206B012804D1A18D2046FEF76B
:1050500025FE02E02046FEF7C9FF70BD70B505468B
:10506000AC6B01206063206B012805D1A08D410845
:105070002046FEF713FE02E02046FEF7B8FF70BDA3
:1050800070B50546AC6B2868006800F48070F8B90C
:105090000020E08400BF00BF2168143151E8001FE8
:1050A00021F080002168143141E80002002AF3D188
:1050B00000BF00BF00BF21680C3151E8001F41F064
:1050C000400021680C3141E80002002AF3D102E0DF
:1050D0002046FFF757F870BD70B50446A56B28460B
:1050E000FFF751F870BD00BF00BF02680C3252E8F4
:1050F000002F22F4907102680C3242E80013002B5A
:10510000F3D100BF00BF00BF0268143252E8002F85
:1051100022F001010268143242E80013002BF3D19F
:1051200000BF016B01290ED100BF00BF02680C3225
:1051300052E8002F22F0100102680C3242E80013FE
:10514000002BF3D100BF202180F842100021016321
:10515000704700BF00BF02680C3252E8002F22F0F7
:10516000C00102680C3242E80013002BF3D100BFEB
:10517000202180F8411070472DE9F84F044620683F
:10518000006920F44050E168084321680861216902
:10519000A068084361690843E169084300902068FA
:1051A000C06849F20C618843009908432168C860CF
:1051B0002068406920F44070A16908432168486173
:1051C00076492068884203D075492068884203D117
:1051D000FDF7ECFC814602E0FDF7D8FC8146E06972
:1051E000B0F5004F6CD102206168A0FB015003466E
:1051F0001920A9FB007001462A463846FBF740F803
:105200006421B0FBF1F04FEA001A02206168A0FBB4
:1052100001510B461920A9FB00712A463846FBF7BD
:105220002FF8834602206168A0FB01500346192035
:10523000A9FB00712A463846FBF722F86421B0FB2F
:10524000F1F000EBC00101EB0010ABEB800032216C
:1052500001EBC0006421B0FBF1F000F0F8000AEBB4
:10526000400A02206168A0FB015003461920A9FBF7
:10527000007001462A463846FBF702F883460220B2
:105280006168A0FB015003461920A9FB00712A4662
:105290003846FAF7F5FF6421B0FBF1F000EBC001EE
:1052A00001EB0010ABEB8000322101EBC000642168
:1052B000B0FBF1F000F007005044216888606AE01C
:1052C00004206168A0FB015003461920A9FB00706F
:1052D00001462A463846FAF7D3FF82460420616821
:1052E000A0FB015003461920A9FB007001462A4685
:1052F0003846FAF7C5FF6421B0FBF1F000EBC001BE
:1053000001EB0010AAEB8000322101EB00106421B8
:10531000B0FBF1F000F0F00A04206168A0FB01701E
:1053200003461920A9FB00513A462846FAF7A8FF80
:105330006421B0FBF1F00AEB001A04206168A0FBC5
:1053400001510B461920A9FB00712A463846FAF78D
:1053500097FF834604206168A0FB01500346192093
:10536000A9FB007001462A463846FAF789FF6421F6
:10537000B0FBF1F000EBC00101EB0010ABEB8000E3
:10538000322101EB00106421B0FBF1F000F00F00BE
:10539000504421688860BDE8F88F0000001001408B
:1053A0000014014077B581B0044615460298A0620A
:1053B000A58500206064222084F842002C48E16B1F
:1053C000C8632C48E16B08642B48E16BC86400207B
:1053D000E16B086502AE32682368191D2B46E06B4D
:1053E000FDF786F838B110206064202084F8420070
:1053F000012004B070BD00BF00200090206800684C
:10540000009020684068009000BF00BF206970B124
:1054100000BF00BF21680C3151E8001F41F48070CB
:1054200021680C3141E80002002AF3D100BF00BF1F
:1054300000BF2168143151E8001F41F001002168CC
:10544000143141E80002002AF3D100BF00BF00BFC1
:105450002168143151E8001F41F0400021681431E7
:1054600041E80002002AF3D100BF0020C1E700009C
:10547000A94F00085D500008594F00082DE9F84376
:1054800004460D4617469846089E31E0701C70B3DE
:10549000FDF778F9A0EB0800B04200D816B9032058
:1054A000BDE8F8832068C06800F00400F8B1802DE2
:1054B0001ED0402D1CD020680068C0F3C000B0B1E1
:1054C00000BF0020009020680068009020684068BD
:1054D000009000BF00BF2046FFF705FE0820606473
:1054E00000BF002084F8400000BF0120D8E7FFE79C
:1054F000206800682840A84201D1012000E0002077
:10550000B842C3D00020CBE770B505464FF4847095
:1055100000F012FE04464FF484712046FAF7FAFEBA
:105520006868C4F80001287884F8FF00A868C4F807
:105530000401074801780078401C054A10700548AE
:1055400040F82140204600F02EF8204670BD0000B3
:1055500078000020500900202DE9F04104460E4655
:1055600017461D46012D04D0022D0AD0032D16D159
:105570000EE064233A463146D4F80001FEF738FDC8
:105580000EE03A463146D4F80001FEF7DFFD07E0B1
:105590003A463146D4F80001FEF78AFD00E000BF2C
:1055A00000BFBDE8F08110B5044694F8FF20214605
:1055B000D4F80001FEF739FBD4F80001C06B006895
:1055C000006820F00800D4F80011C96B0968086071
:1055D00010BD00BFFEE7000002480068C0F30220D3
:1055E000704700000CED00E010B5002804DB0A074E
:1055F000130E054A135406E00A07140E034A00F07E
:105600000F031B1FD45410BD00E400E018ED00E0B0
:1056100002E008C8121F08C1002AFAD1704770477B
:10562000002001E001C1121F002AFBD17047F0EEFB
:10563000400AF5EEC00AF1EE10FA02DBB0EE600AA5
:105640007047B1EE600AFBE710B59FED2E0A2E48B9
:1056500080ED000A9FED2D0A2D4880ED000A4FF4E1
:10566000967000F09FFD9FED2B0A294880ED000AFF
:105670004FF4FA7000F096FD9FED240A244880ED67
:10568000000A4FF4C87000F08DFD9FED220A2048FB
:1056900080ED000A4FF4C87000F084FD9FED1B0AF6
:1056A0001B4880ED000A4FF4C87000F07BFD9FEDB1
:1056B000190A174880ED000A4FF4C87000F072FD17
:1056C0009FED120A124880ED000A4FF4C87000F0F6
:1056D00069FD9FED100A0E4880ED000A4FF4C87076
:1056E00000F060FD9FED070A094880ED000A9FED7C
:1056F000050A054880ED000A4FF4FA6000F052FDFB
:1057000010BD0000000000002402002000009643AD
:1057100020020020000096C310B50A4890ED000A50
:1057200009480068FBF76BFB084890ED000A084841
:105730000068FBF764FBFBF7FDF906490878FFF703
:10574000D7F810BD200200205802002024020020BB
:105750005C0200206402002010B50448FDF74EFFF3
:1057600008210248FEF7CEF910BD0000CC0600204B
:10577000002002490968C86370470000CC06002079
:1057800000BF164A1268126A41F211131A406AB930
:10579000124A1268126A9B101A403AB90F4A1268EC
:1057A000126822F001020D4B1B681A6000BF0B4A01
:1057B00012689062094A1268D1630022074B1B6885
:1057C0005A620122054B1B685A61044A126812682A
:1057D00042F00102014B1B681A607047CC060020A2
:1057E00070B50446012C0DD1002509E0264A02EBD4
:1057F00085025188244A32F8250000F04FF86D1CCC
:105800000D2DF3D3022C0DD1002509E01F4A02EB28
:10581000850251881D4A32F8250000F03FF86D1CC2
:10582000362DF3D3032C0DD1002509E0184A02EBE5
:1058300085025188164A32F8250000F02FF86D1CB9
:10584000322DF3D3042C0DD1002509E0114A02EBCF
:10585000850251880F4A32F8250000F01FF86D1CB0
:10586000182DF3D3052C0DD1002509E00A4A02EBCF
:1058700085025188084A32F8250000F00FF86D1CA7
:105880001F2DF3D370BD0000B0730008E47300084F
:10589000BC74000884750008E475000870B50546FE
:1058A0000C46284600F006F8204600F07BFCFFF787
:1058B0005FFF70BD2DE9F04705461DB9FFF758FFA2
:1058C000BDE8F08700F01AF806464FF47A7705FB3A
:1058D00007F0B6FBF0F404B90124641EB4F5803F70
:1058E00001D34FF6FF741FFA84F8C7F34F094946F6
:1058F0004046FFF745FF00BFE2E7000010B5FDF7A7
:1059000045F904460448006800F4E05008B160001E
:1059100010BD2046FCE7000008380240F0EE401AB7
:10592000F4EEE01AF1EE10FA02D2B0EE600A70471F
:10593000F4EEC11AF1EE10FA02DDB0EE410AF6E71C
:10594000B0EE610AF3E7000090ED0D0AD0ED110A08
:1059500020EE200AB5EEC00AF1EE10FA53DD90ED0C
:105960000D0AB5EEC00AF1EE10FA02DD90ED0D0A57
:1059700003E090ED0D0AB1EE400AD0ED080AB4EE56
:10598000E00AF1EE10FA00D8704790ED070AD0ED6A
:10599000080A70EE200A90ED0D0AB5EEC00AF1EE8D
:1059A00010FA02DD90ED0D0A03E090ED0D0AB1EE64
:1059B000400AF4EEC00AF1EE10FA20DBD0ED070A3F
:1059C00090ED0D0AB5EEC00AF1EE10FA02DD90ED91
:1059D0000D0A03E090ED0D0AB1EE400A30EEC00A68
:1059E000D0ED080A30EE200A90ED071AC0EE010A49
:1059F00090ED130A20EE800A80ED130A03E09FED7C
:105A0000030A80ED130A00BFBEE70000000000009B
:105A100090ED120AD0ED190A60EE200A90ED0A0A04
:105A200090ED191A30EE011A80EE810AD0ED160AB7
:105A300090ED0A1A60EE810A90ED0A1AD0ED191A5B
:105A400031EE211AC0EE811A30EE210A80ED120AE1
:105A5000704790ED0C0AD0ED0B0A30EE600AD0EDE5
:105A6000020A20EE200AD0ED190A80EE201A80EDFD
:105A7000121A704790ED110AD0ED130A30EE200A89
:105A80002E4981ED000A90ED100AD0ED110A30EE9A
:105A9000200AD0ED120A30EE200A294981ED000AD1
:105AA00091ED000AB5EEC00AF1EE10FA02DD91EDBB
:105AB000000A04E0224991ED000AB1EE400AD0ED5F
:105AC000030AB4EEE00AF1EE10FA0EDD90ED0D0AD5
:105AD000D0ED110A20EE200AB5EEC00AF1EE10FA60
