:020000040800F2
:10000000A81A00209D010008593900088332000811
:1000100055390008570900089D48000800000000F5
:1000200000000000000000000000000005010008C2
:10003000B909000800000000490100080D4000084F
:10004000B7010008B7010008B7010008B7010008B0
:10005000B7010008B7010008B7010008B7010008A0
:10006000B7010008B7010008B70100085D090008E2
:10007000B70100086D090008B70100087D090008F4
:10008000B7010008B701000859070008B7010008C8
:10009000B7010008B7010008B7010008B701000860
:1000A000B7010008B7010008B7010008B701000850
:1000B000B7010008B7010008C9400008B7010008EF
:1000C000B7010008B7010008B7010008B701000830
:1000D000B70100087D480008B70100088D480008F6
:1000E000B7010008B7010008B7010008DFF810D019
:1000F00000F014FB00480047F14A0008AFF300800D
:10010000A81A0020224B19680868B0E8F00F80F3A5
:100110000988BFF36F8F4FF0000080F311884EF015
:100120000D0E70470000000006480068006880F36C
:10013000088862B661B6BFF34F8FBFF36F8F00DFE1
:1001400000BF00BF08ED00E0EFF30980BFF36F8F41
:100150000F4B1A6820E9F00F106008B54FF05000FF
:1001600080F31188BFF34F8FBFF36F8F05F0B4FAA0
:100170004FF0000080F31188BDE808401968086856
:10018000B0E8F00F80F30988BFF36F8F704700BFAE
:1001900040000020EFF305807047000006488047CC
:1001A00006480047FEE7FEE7FEE7FEE7FEE7FEE75C
:1001B000FEE7FEE7FEE7FEE7C5400008ED000008A9
:1001C000202A04DB203A21FA02F00021704721FAAC
:1001D00002F3D040C2F12002914008431946704713
:1001E00040EA01039B0703D009E008C9121F08C0B9
:1001F000042AFAD203E011F8013B00F8013B521E39
:10020000F9D27047D2B201E000F8012B491EFBD2AF
:1002100070470022F6E710B513460A460446194611
:10022000FFF7F0FF204610BDF0B480EA0102D40FC2
:100230004200B2EB410F02D20246084611464A0084
:1002400042D0C30DDDB2C1F3C752AD1A202D35DA4D
:10025000C1F3160141F4000204B15242C5F1200677
:1002600002FA06F12A411044B3EBD05F23D0C4B1A7
:10027000012DA0EBC35009DCF0BC4FF0004202EAB4
:10028000C352DBB200F5000000F086B9400000F177
:10029000807000EBC350A0F1807040EAD17049003B
:1002A00009E0490841EAC071A0EBC35000F5000025
:1002B000400800EBC350F0BC00F065B96142012278
:1002C00002EB4101001BF6E7F0BC704781F00041F2
:1002D000AAE780F00040A7E780EA010210B502F02B
:1002E0000043400022D04A001FD0010E01EB1261F2
:1002F000C0F35600C2F3560240F4000042F400027C
:10030000A0FB022000047F39140400D0401C50EAF6
:10031000124001D44000491EC2B20C0604EBD010BA
:10032000401C4008802A02D003E0002010BD20F0CD
:100330000100002900DA0020184310BD30B480EA23
:10034000010202F0004530F0004221F0004013D0DD
:1003500090B1C30DD40DC2F31601C0F31600E41A18
:1003600041F4000140F400027D34914201D3641C49
:1003700000E04900002C02DA30BC002070474FF446
:1003800000000023914201D3891A034340084FEA39
:100390004101F7D151B1914202D14FF0004105E046
:1003A00002D24FF0010101E06FF0010103EBC450F4
:1003B000284430BC00F0E7B82DE9FE4F81EA030481
:1003C00004F0004421F0004100944FF0000B23F0B2
:1003D000004350EA01045ED052EA03045BD0C3F349
:1003E0000A54C1F30A552C44A4F2F3340194A0FB3F
:1003F0000254C1F3130141F48011C3F3130343F416
:10040000801301FB024400FB034E840A970A44EA6E
:10041000815447EA8357A4FB076802958D0A05FBC0
:1004200007854FEA932C04FB0C542705029D4FEAE5
:10043000065847EA1637B5EB08056EEB070C870E32
:10044000920E47EA811742EA8312A7FB0201B6EB3C
:100450000B0164EB00042B0D43EA0C335E1844EBF4
:100460001C50DA465146E7FB0201C5F313044FEA7C
:100470000B3343EA14534FEA0432019C43EA060368
:10048000A4F10C040294009CCDE900B400F0DFF864
:1004900003B0BDE8F08F00200146F9E7C10F80EA04
:1004A000E0700844CA079623002100F075B896232F
:1004B0000022114600F070B820F00040C10DC0F3DA
:1004C000160040F400007F2901DA002070479629C9
:1004D00003DCC1F19601C8407047963988407047E7
:1004E00000F0004230F000400AD0C10D01F560710B
:1004F000C0F3160042EA0151C20840071143704799
:1005000000200146704701F0004330B421F0004163
:1005100050EA010206D00A0DA2F56072C1F3130180
:10052000002A02DC30BC00207047440F44EAC104BA
:10053000C100E01830BC00EBC25000F024B800004D
:10054000002801DBC0F10040002901DBC1F10041BE
:1005500081427047002801DBC0F10040002901DB27
:10056000C1F1004188427047202A04DB203A00FA9A
:1005700002F1002070479140C2F1200320FA03F3FA
:100580001943904070470029A8BF7047401C49009C
:1005900008BF20F00100704710B4B0FA80FC00FAE8
:1005A0000CF050EA010404BF10BC704749B1CCF113
:1005B000200421FA04F411FA0CF118BF012121439F
:1005C0000843A3EB0C01CB1D4FEA00614FEA10205A
:1005D00042BF002010BC704700EBC35010440029FC
:1005E000A4BF10BC7047401C490008BF20F00100A8
:1005F00010BC704710B541000CD0C0F3C75196290C
:1006000008DC7E2909DC06DB410204D000F0004052
:1006100040F07E5010BD002010BDC1F19604C4F121
:10062000200100FA01F1E040FFF7ADFFA04010BD4E
:1006300010B5141E73F1000408DA401C41F10001EA
:1006400092185B411A4301D120F0010010BD2DE941
:10065000F04D92469B4611B1B1FA81F202E0B0FA38
:1006600080F220329046FFF77FFF04460F4640EAB3
:100670000A0041EA0B0153465A46084313D011467B
:1006800053EA010019D0C8F140025046FFF798FD27
:1006900005460E46504659464246FFF765FF084359
:1006A00005D0012004E020463946BDE8F08D002049
:1006B000054346EAE0762C4337430A986305E40A8B
:1006C000A0EB08000022FD0A44EA47540A3002D594
:1006D00000200146E9E7010510196941DDE90845F7
:1006E00000196941BDE8F04DA2E700F0004220F09A
:1006F0000040C10DC0F3160040F400007F2901DA6C
:1007000000207047962903DCC1F19601C84001E042
:1007100096398840002AF4D040427047064C074D75
:1007200006E0E06840F0010394E8070098471034C1
:10073000AC42F6D3FFF7DEFCAC800008CC800008AA
:10074000420005D0C0F3C7525242914201DC002062
:10075000704700EBC150704710B5024800F051FAE5
:1007600010BD00004803002070B504460025206835
:10077000806800F0010018B32068806820F0010054
:100780002168886001F008F8054613E001F004F8DC
:10079000401B02280ED92068806800F0010048B193
:1007A000A06A40F01000A062E06A40F00100E06240
:1007B000012070BD2068806800F001000028E5D1AC
:1007C0000020F6E770B50A210C4800F0A9F80546AC
:1007D0000B492846FFF780FD06464FF08B41FFF797
:1007E000ADFD044607492046FFF776FD064606495B
:1007F000FFF7A4FD0549086070BD0000E00000207F
:100800003333534000606A4700401C460800002014
:1008100070B505466C6AA06A00F05000E0B9A06AA5
:1008200040F40070A0622068806800F46020B0F599
:10083000602F0DD1207B58B9A06A20F48070A0628F
:10084000A06A00F4805018B9A06A40F00100A062CC
:10085000204600F0D3F903E0206A016B2846884760
:1008600070BD70B505466C6AA06A40F04000A06299
:10087000E06A40F00400E062204600F0C1F970BD7B
:1008800070B50446656A284600F0B9F970BD0000ED
:1008900038B504460025002000902068806800F0EC
:1008A000010078BB2068806840F001002168886002
:1008B000194800681949B0FBF1F0009002E0009877
:1008C000401E009000980028F9D100F065FF054611
:1008D00019E000F061FF401B022814D920688068ED
:1008E00000F0010078B9A06A40F01000A062E06A50
:1008F00040F00100E06200BF002084F8240000BF47
:10090000012038BD05E02068806800F00100002863
:10091000DFD00020F5E700003800002040420F0043
:100920002DE9F04105460C460026002004E035F88C
:1009300010100E44411CC8B2A042F8DB2046FFF75D
:10094000B6FD07463046FFF7B2FD80463946FFF751
:10095000F5FCBDE8F08100BFFEE7000010B50248DD
:1009600000F020FC10BD00007803002010B5024804
:1009700000F018FC10BD00002C05002010B5024846
:1009800000F010FC10BD0000E804002030B590F825
:1009900040500124AC40C56B6C60046863604468DF
:1009A000102C04D10468A2600468E16003E00468CC
:1009B000A1600468E26030BD704772B600BFFEE718
:1009C00008B52D480088072852D2DFE800F0040F50
:1009D0001A25303B460002F0C1FF28484023802200
:1009E00000210090084603F075F841E002F0B6FFE0
:1009F00023484023802200210090084603F06AF833
:100A000036E002F0ABFF1F48402380220021009017
:100A1000084603F05FF82BE002F0A0FF1A484023DD
:100A2000802200210090084603F054F820E002F0F4
:100A300095FF16484023802200210090084603F0CD
:100A400049F815E002F08AFF114840238022002176
:100A50000090084603F03EF80AE002F07FFF0D48E0
:100A60004023802200210090084603F033F800BFA5
:100A700000BF03F0ADF808BD3C000020747400080E
:100A800074780008746C000874700008747C0008A6
:100A900074680008746400087047000038B50246A6
:100AA00000230020009000BF92F82400012801D10B
:100AB000022038BD012082F8240000BF48680728C2
:100AC00012D21068406B0C79641E04EB84051F245D
:100AD000AC40A0430D796D1E05EB85050C68AC405C
:100AE00020431468606327E048680D2812D210681C
:100AF000006B0C79E41F04EB84051F24AC40A04379
:100B00000D79ED1F05EB85050C68AC40204314689A
:100B1000206311E01068C06A0C790D3C04EB840579
:100B20001F24AC40A0430D790D3D05EB85050C68F5
:100B3000AC4020431468E06208680A2812D31068A9
:100B4000C0680C780A3C04EB44050724AC40A04381
:100B50000D780A3D05EB45058C68AC4020431468D0
:100B6000E0600FE0106800690C7804EB440507248E
:100B7000AC40A0430D7805EB45058C68AC402043A4
:100B8000146820610868102802D00868112827D14D
:100B9000174C1068A0421ED11068806800F4000055
:100BA000F0B91068806840F400001468A06008681C
:100BB000102815D10F4800680F4CB0FBF4F000EB83
:100BC00080004000009002E00098401E00900098D5
:100BD0000028F9D104E0906A40F0200090620123DF
:100BE00000BF002082F8240000BF184661E7000023
:100BF000002401403800002040420F007047704739
:100C0000704770B50446206805682068466806F09D
:100C1000200020282DD105F00200022829D1A06A49
:100C200000F0100018B9A06A40F40070A0622068BB
:100C3000806800F46020B0F5602F13D1207B88B964
:100C40002068406820F0200021684860A06A20F4F5
:100C50008070A062A06A00F4805018B9A06A40F0C9
:100C60000100A0622046FFF7C9FF6FF01200216863
:100C7000086006F08000802839D105F004000428BF
:100C800035D1A06A00F0100018B9A06A40F40050F5
:100C9000A0622068806800F4E040B0F5E04F0DD01D
:100CA0002068406800F48060D0B92068806800F453
:100CB0006020B0F5602F13D1207B88B92068406890
:100CC00020F0800021684860A06A20F48050A06273
:100CD000A06A00F4807018B9A06A40F00100A06218
:100CE0002046FFF7D9FE6FF00C002168086006F07F
:100CF000400040280DD105F0010050B1A06A40F439
:100D00008030A062204600F0A7F86FF00100216853
:100D1000086070BD2DE9F04104460027002500263B
:100D2000A84614B90120BDE8F081A06810B1207D6B
:100D300000B100BFA06A30B90020E06284F824004E
:100D4000204600F08BF82046FFF70EFD0746A06A0C
:100D500000F01000002873D1002F71D1A06A20F498
:100D6000885040F00200A062E16960680843217B7E
:100D700040EA41000643A068B0F5807F02D0A06839
:100D8000012802D14FF4807000E000200543207D4F
:100D9000012811D1207B38B9A069401E4FF40061B1
:100DA00041EA4030054307E0A06A40F02000A0621D
:100DB000E06A40F00100E0622068406820F4694089
:100DC00028432168486020688068214908403043F2
:100DD00021688860A068B0F5807F02D0A0680128F3
:100DE00002D14FF4807000E00020B0F5807F03D185
:100DF000208A401E4FEA00582068C06A20F4700024
:100E000040EA08002168C8622068806811490840EB
:100E1000B04208D10020E062A06A20F0020040F059
:100E20000100A06211E0A06A20F0020040F0100072
:100E3000A062E06A40F00100E062012705E0FFE700
:100E4000A06A40F01000A062012738466BE700005E
:100E5000FDF7E1FFFE0E1FFF7047000010B586B0E2
:100E600004460020029003900490059026492068D3
:100E7000884246D100BF2548806940F4007023496C
:100E800088610846806900F40070019000BF00BFCF
:100E900000BF0846806940F0040088610846806908
:100EA00000F00400019000BF00BF04200290032066
:100EB000039002A9164800F0D9FA164816490860AE
:100EC000002048600021144881608021C1604900F1
:100ED000016189004161202181610021C16100F02F
:100EE0002FFA08B1FFF769FD00BF0B48206244628A
:100EF00000BF00220521122000F0E8FE122000F0C1
:100F0000D5FE06B010BD00000024014000100240D4
:100F10000008014008000240780300202DE9F0415C
:100F200004460D461646002757492068884203D0DC
:100F300056492068884205D15348001D006800F4D6
:100F4000702000E0002000287ED100BF94F824002B
:100F5000012802D10220BDE8F081012084F824009C
:100F600000BF2046FFF794FC0746002F6DD1A06A12
:100F700040F60161884340F48070A06243492068D4
:100F8000884209D14048001D006800F4702008B96B
:100F9000012002E0002000E0012078B1A06A20F4E6
:100FA0008010A0622068406800F4806000B3A06AEE
:100FB00020F4005040F48050A06219E0A06A40F490
:100FC0008010A06230492068884203D02F492068F1
:100FD000884205D12C48001D006800F4806000E0C4
:100FE000002028B1A06A20F4005040F48050A06294
:100FF000A06A00F4805020B1E06A20F00600E062B0
:1010000001E00020E06200BF002084F8240000BF5F
:101010001F48216A88621F48216AC8621E48216AE7
:1010200008636FF00200216808602068806840F45F
:10103000807021688860226802F14C0133462A469C
:10104000206A00F0B1F901E01AE014E0206880683D
:1010500000F46020B0F5602F06D12068806840F46D
:10106000A000216888600CE02068806840F480104F
:101070002168886005E000BF002084F8240000E0BB
:101080000127384667E7000000240140002801409E
:1010900011080008810800086308000801460022C2
:1010A00091F82100022808D00420886300BF0020A6
:1010B00081F8200000BF012070470868006820F018
:1010C0000E000B6818600868006820F001000B68CB
:1010D000186091F8403001209840CB6B5860012097
:1010E00081F8210000BF002081F8200000BF1046D9
:1010F000E2E7000070B50446002594F821000228BC
:1011000003D00420A063012548E02068006820F097
:101110000E00216808602068006820F00100216846
:1011200008601F492068884201D1012026E01C493F
:1011300014312068884201D110201FE0184928315D
:101140002068884201D1801518E015493C3120689B
:10115000884201D1801411E0114950312068884241
:1011600002D14FF4803009E00D4964312068884293
:1011700002D14FF4801001E04FF080700849083927
:101180004860012084F8210000BF002084F820007E
:1011900000BF606B10B12046616B8847284670BD68
:1011A0000800024070B50446E06B056820680668D8
:1011B00094F84010042088402840002846D006F0CB
:1011C0000400002842D02068006800F0200028B900
:1011D0002068006820F004002168086057492068F2
:1011E000884201D1042027E0544914312068884204
:1011F00001D1402020E0514928312068884201D1A6
:10120000001519E04D493C312068884202D14FF465
:10121000804011E0494950312068884202D14FF4A2
:10122000802009E0454964312068884202D14FF4AA
:10123000800001E04FF08060404908394860E06A72
:1012400000287AD02046E16A884776E094F840107A
:10125000022088402840A0B306F0020088B320682E
:10126000006800F0200040B92068006820F00A0003
:1012700021680860012084F82100304920688842F4
:1012800001D1022028E02D4914312068884201D183
:10129000202021E0294928312068884201D14015C9
:1012A0001AE026493C312068884202D14FF40050B0
:1012B00012E0224950312068884203D14FF40030B7
:1012C0000AE017E01D4964312068884202D14FF4DA
:1012D000001001E04FF0007018490839486000BF65
:1012E000002084F8200000BFA06A30B32046A16A25
:1012F000884722E094F84010082088402840E0B158
:1013000006F00800C8B12068006820F00E002168CF
:10131000086094F8401001208840E16B486001208B
:10132000A06384F8210000BF002084F8200000BFE3
:10133000206B10B12046216B884770BD0800024029
:101340000146002209B901207047164B0868C01AEF
:101350001423B0FBF3F08000086412480838C86317
:10136000022081F821000868026843F6F070824389
:10137000D1E901031843CB6818430B6918434B6943
:1013800018438B691843CB6918430243086802600D
:1013900000208863012081F82100002081F82000CE
:1013A00000BFD1E7080002402DE9F04104460D4698
:1013B00016461F464FF0000800BF94F82000012891
:1013C00002D10220BDE8F081012084F8200000BF96
:1013D00094F8210001282CD1022084F8210000205B
:1013E000A0632068006820F00100216808603B4687
:1013F000324629462046FFF7C9FAE06A30B1206834
:10140000006840F00E00216808600BE0206800686A
:1014100020F00400216808602068006840F00A009D
:10142000216808602068006840F0010021680860B9
:1014300006E000BF002084F8200000BF4FF0020843
:101440004046BFE770B5044600F0A6F906462546BB
:10145000681C10B104480078054400BF00F09CF9F6
:10146000801BA842FAD370BD340000202DE9F84754
:101470000346002294466EE14FF0010808FA02F498
:10148000D1F8008008EA0400A0427DD1DFF8DCA298
:10149000D1F80480A8EB0A09D0453AD014DCB8F1A1
:1014A000030F50D009DCB8F1000F31D0B8F1010FB3
:1014B0001CD0B8F1020F49D120E0B8F1110F18D0BB
:1014C000B8F1120F42D11EE0B9F5881F25D006DC15
:1014D000B9F5803F20D0B9F5801F37D11AE0B9F5B2
:1014E000001F18D0B9F5041F30D117E0D1F80CC097
:1014F0002DE0D1F80C8008F1040C28E0D1F80C8024
:1015000008F1080C23E0D1F80C8008F10C0C1EE067
:1015100000BF00BF00BF00BF00BF00BFD1F8088000
:10152000B8F1000F02D14FF0040C0BE0D1F80880A5
:10153000B8F1010F03D14FF0080C1C6102E04FF02D
:10154000080C5C6103E04FF0000C00E000BF00BF3E
:10155000FF2801D8984601E003F104084646FF2819
:1015600002D84FEA820803E0A2F108084FEA88088F
:101570004746D6F800804FF00F0909FA07F928EA24
:1015800009080CFA07F900E088E048EA0908C6F8FB
:101590000080D1F8048008F08058B8F1805F7DD1D8
:1015A00000BFDFF8CC81D8F8188048F00108DFF8D8
:1015B000C091C9F81880C846D8F8188008F001080A
:1015C000CDF8008000BF00BF4FEAB9384FEA92095A
:1015D00058F829504FEA82784FEA18794FF00F08EF
:1015E00008FA09F825EA0805DFF88881434502D1A1
:1015F0004FF0000816E0DFF88081434502D14FF03C
:1016000001080FE0DFF87481434502D14FF0020872
:1016100008E0DFF86C81434502D14FF0030801E098
:101620004FF004084FEA82794FEA197908FA09F86D
:1016300048EA0505DFF84C814FEA920948F829503D
:10164000D1F8048008F48018B8F5801F0AD1DFF8BB
:101650003881D8F8008048EA0008DFF82C91C9F8F2
:10166000008009E0DFF82081D8F8008028EA00082F
:10167000DFF81491C9F80080D1F8048008F400184C
:10168000B8F5001F10D1DFF8008108F10408D8F880
:10169000008048EA0008DFF8F09000E05AE009F125
:1016A0000409C9F800800DE0DFF8DC8008F10408C7
:1016B000D8F8008028EA0008DFF8CC9009F1040986
:1016C000C9F80080D1F8048008F40038B8F5003F6C
:1016D0000ED1DFF8B480A8F10408D8F8008048EAF9
:1016E0000008DFF8A490A9F10409C9F800800DE012
:1016F000DFF89480A8F10408D8F8008028EA0008F0
:10170000DFF88490A9F10409C9F80080D1F80480B9
:1017100008F48038B8F5803F0ED1DFF86C80A8F16E
:101720000808D8F8008048EA0008DFF85C90A9F1C2
:101730000809C9F800800DE0DFF84C80A8F108081E
:10174000D8F8008028EA0008DFF83C90A9F10809E1
:10175000C9F80080521CD1F8008028FA02F8B8F1CC
:10176000000F7FF489AEBDE8F8870000000011107B
:101770000010024000080140000C01400010014030
:101780000014014008000140080401400AB1016151
:1017900001E00B04036170470148006870470000D6
:1017A0002C00002070B504460CB9012070BD94F8DF
:1017B0003D0028B9002084F83C00204600F092F952
:1017C000242084F83D002068006820F00100216892
:1017D00008602068006840F40040216808602068C4
:1017E000006820F400402168086000F047FC0546CE
:1017F0005C496068884206D85B48854201D2012076
:1018000007E0002005E05948854201D2012000E0B0
:101810000020012800D1C9E75548B5FBF0F6206843
:10182000406820F03F003043216848604D496068BF
:10183000884201D8701C07E04FF4967070434FF453
:101840007A71B0FBF1F0401C2168096A21F03F0178
:1018500008432168086243496068884214D8681EBA
:1018600061684900B0FBF1F0401CC0F30B00042894
:1018700001D204203DE0681E61684900B0FBF1F030
:10188000401CC0F30B0034E0A06838B9681E6168E2
:1018900001EB4101B0FBF1F0401C0AE0681E6168F9
:1018A00001EBC10202EB0111B0FBF1F0401C40F46E
:1018B0008040C0F30B0008B901201AE0A06848B9C5
:1018C000681E616801EB4101B0FBF1F0401CC0F300
:1018D0000B000CE0681E616801EBC10202EB011114
:1018E000B0FBF1F0401CC0F30B0040F4804040F42A
:1018F00000402168C9694CF6FF7291430843216892
:10190000C861D4E9070108432168096821F0C001D2
:10191000084321680860D4E90310084321688968F6
:1019200048F2FF329143084321688860D4E90501F9
:1019300008432168C96821F0FF0108432168C86095
:101940002068006840F001002168086000202064E1
:10195000202084F83D000020206384F83E0000BF72
:1019600024E70000A086010080841E0000093D00DD
:1019700040420F002DE9F8430446894616461F46AB
:10198000DDF82080FFF708FF054694F83D00202889
:101990007ED11923012251492046009501F025FDF1
:1019A00010B10220BDE8F88300BF94F83C00012884
:1019B00001D10220F6E7012084F83C0000BF206836
:1019C000006800F0010028B92068006840F00100BC
:1019D000216808602068006820F4006021680860C1
:1019E000212084F83D00102084F83E00002020646F
:1019F00066626785608D20853948E0622B464246E5
:101A00004946204601F05EFC08B10120CAE700BF4C
:101A10000020009020684069009020688069009054
:101A200000BF00BF44E02A464146204601F0B9FD10
:101A300050B1206C042805D12068006840F4007083
:101A4000216808600120ADE7606A007821680861BC
:101A5000606A401C6062608D401E6085208D401E63
:101A6000208520684069C0F3800070B1208D60B18E
:101A7000606A007821680861606A401C6062608D5D
:101A8000401E6085208D401E20852A46414600E08C
:101A900022E0204601F076FC50B1206C042805D1EC
:101AA0002068006840F4007021680860012079E730
:101AB000208D0028B7D12068006840F400702168AC
:101AC0000860202084F83D00002084F83E0000BF1C
:101AD00084F83C0000BF65E7022063E702001000C5
:101AE0000000FFFF10B586B004460020029003906E
:101AF0000490059015492068884225D100BF1448FC
:101B0000806940F00800124988610846806900F049
:101B10000800019000BF00BFC02002901220039077
:101B20000320059002A90B48FFF7A0FC00BF08485E
:101B3000C06940F400100649C8610846C06900F455
:101B40000010019000BF00BF06B010BD005400405F
:101B500000100240000C0140034800680349097866
:101B600008440149086070472C0000203400002020
:101B700010B50848006840F01000064908600320CE
:101B800000F0E2F80F2000F007F800F05FF8002006
:101B900010BD0000002002402DE9F04188B004464D
:101BA0000027B846002600BF2348C06940F0040063
:101BB0002149C8610846C06900F00400019000BFD7
:101BC00000BF02A903A800F031FA069F1FB900F078
:101BD00055FA054602E000F051FA45001748B5FBFA
:101BE000F0F0A0F1010816481649086040F2E7310C
:101BF0001448C160C0F804800021016181608161E6
:101C000000F044FD064696B90E4800F08BFD0646EE
:101C10006EB91E2000F04AF8102C07D2002221468F
:101C20001E2000F053F80848046000E0012630460A
:101C300008B0BDE8F08100000010024040420F00F3
:101C400000080040700500203000002008B500BFEB
:101C50001448806940F00100124988610846806993
:101C600000F00100009000BF00BF00BF0846C0693F
:101C700040F08050C8610846C06900F08050009074
:101C800000BF00BF00220F21901E00F01FF800BF10
:101C90000549486820F0E06040F00070486000BFEF
:101CA00008BD000000100240000001400146084647
:101CB000002809DB00F01F0301229A4043099B0022
:101CC00003F1E023C3F8002100BF70472DE9F05F66
:101CD00080460D461646002702F0F6FD07463946B7
:101CE0002A46334601F00700C0F1070ABAF1040F93
:101CF00002D94FF0040A01E0C0F1070AD14600F111
:101D0000040ABAF1070F02D24FF0000A01E0A0F175
:101D1000030AD4464FF0010A0AFA09FAAAF1010AA5
:101D20000AEA020A0AFA0CFA4FF0010B0BFA0CFB52
:101D3000ABF1010B0BEA030B4AEA0B0421464046C8
:101D400002F0CAFDBDE8F09F00BF00F00702064B9D
:101D500019684FF6FF031940044B0B4343EA022175
:101D6000014B196000BF70470CED00E00000FA0560
:101D7000F8B5044600260025207800F00100002870
:101D80006BD000274348C06900F0805070B900BF95
:101D90004048C06940F080503E49C8610846C0696B
:101DA00000F08050009000BF00BF01273A48006853
:101DB00000F48070B0B93848006840F4807036494B
:101DC0000860FFF7E9FC064606E0FFF7E5FC801B2C
:101DD000642801D90320F8BD2F48006800F4807002
:101DE0000028F2D02B48006A00F440752DB3A0887B
:101DF00000F44070A84220D02648006A20F44075C4
:101E0000012026490860002008602248056205F08C
:101E1000010090B1FFF7C0FC064608E0FFF7BCFCEC
:101E2000801B41F28831884201D90320D3E7194849
:101E3000006A00F002000028F0D01648006A20F482
:101E400040706168084313490862012F04D10846B5
:101E5000C06920F08050C86100BF207800F0020007
:101E6000022807D10B48406820F44040A16808438D
:101E700008494860207800F01000102807D1054874
:101E8000406820F48000E16808430249486000206F
:101E9000A1E70000001002400070004040044242F0
:101EA00070B504460D460CB9012070BD5A48006853
:101EB00000F00700A8420ED25748006820F0070043
:101EC0002843554908600846006800F00700A8420A
:101ED00001D00120E9E7207800F0020002281DD19E
:101EE000207800F00400042805D14C48406840F4F4
:101EF000E0604A494860207800F00800082805D1D1
:101F00004648406840F4605044494860434840684F
:101F100020F0F000A168084340494860207800F0B4
:101F2000010078B36068012806D13C48006800F4DD
:101F3000003090B90120B8E76068022806D1374820
:101F4000006800F0007040B90120AEE73348006837
:101F500000F0020008B90120A7E73048406820F0EF
:101F60000300616808432D494860FFF715FC0646E9
:101F700009E0FFF711FC801B41F28831884202D949
:101F8000032092E707E02548406800F00C006168F4
:101F9000B0EB810FEDD12048006800F00700A842A7
:101FA0000ED91D48006820F0070028431A49086030
:101FB0000846006800F00700A84201D0012074E73D
:101FC000207800F00400042807D11448406820F469
:101FD000E060E168084311494860207800F008009B
:101FE000082808D10D48406820F46050216940EA73
:101FF000C1000A49486000F061F808494968C1F326
:102000000311074A515CC840064908600648006849
:10201000FFF7C2FD002048E7002002400010024008
:10202000125C000838000020300000200F220260FF
:102030000D4A526802F0030242600B4A526802F0F5
:10204000F0028260084A526802F4E062C260064A06
:10205000526802F46052D2080261044A126802F027
:1020600007020A6070470000001002400020024092
:1020700001480068704700003800002000B5FFF7F5
:10208000F7FF04494968C1F30221034A515CC84083
:1020900000BD000000100240225C000800B5FFF700
:1020A000E7FF04494968C1F3C221034A515CC840B3
:1020B00000BD000000100240225C000870B5002145
:1020C0000022002400230020134D696801F00C0554
:1020D000F5B1042D02D0082D19D101E00F4819E007
:1020E0000F4DC1F38346AB5D01F4803555B10A4D08
:1020F0006D68C5F340450B4E725D084D5D43B5FB01
:10210000F2F402E0084D03FB05F4204602E000BFB4
:10211000024800BF00BF70BD0010024000127A00EC
:10212000005C0008105C000800093D00F8B504469A
:102130000CB90120F8BD207800F00100002878D00B
:10214000F848406800F00C0004280CD0F5484068BE
:1021500000F00C00082811D1F248406800F48030EB
:10216000B0F5803F0AD1EF48006800F40030002845
:102170005FD0606800285CD10120DBE700BF6068A9
:10218000B0F5803F06D1E748006840F48030E5496B
:10219000086028E0606858B9E248006820F48030A0
:1021A000E04908600846006820F4802008601AE0D2
:1021B0006068B0F5A02F0BD1DA48006840F48020A9
:1021C000D84908600846006840F4803008600AE09A
:1021D000D448006820F48030D2490860084600687E
:1021E00020F48020086000BF606888B1FFF7D4FA4F
:1021F000054606E0FFF7D0FA401B642801D903200A
:1022000098E7C848006800F400300028F2D010E0D9
:10221000FFF7C2FA054606E0FFF7BEFA401B642846
:1022200001D9032086E7BF48006800F40030002889
:10223000F2D1207800F00200022857D1B948406856
:1022400000F00C0050B1B748406800F00C000828BE
:1022500018D1B448406800F4803098B9B14800689B
:1022600000F0020020B12069012801D0012061E7BF
:10227000AC48006820F0F800616940EAC100A94953
:10228000086033E02069E8B10120A7490860FFF742
:1022900083FA054606E0FFF77FFA401B022801D9C2
:1022A000032047E79F48006800F002000028F2D0B2
:1022B0009C48006820F0F800616940EAC100994933
:1022C000086013E0002098490860FFF765FA0546AA
:1022D00006E0FFF761FA401B022801D9032029E735
:1022E0009048006800F002000028F2D1207800F049
:1022F000080008282DD1A069B8B101208B490860D9
:10230000FFF74AFA054606E0FFF746FA401B0228A7
:1023100001D903200EE78348406A00F0020000283C
:10232000F2D0012001F05EFE13E000207F4908603A
:10233000FFF732FA054606E0FFF72EFA401B0228A7
:1023400001D90320F6E67748406A00F00200002831
:10235000F2D1207800F00400042873D100277148DE
:10236000C06900F0805070B900BF6E48C06940F08D
:1023700080506C49C8610846C06900F080500090E8
:1023800000BF00BF01276A48006800F48070B0B940
:102390006748006840F4807065490860FFF7FCF901
:1023A000054606E0FFF7F8F9401B642801D9032031
:1023B000C0E65F48006800F480700028F2D000BFDB
:1023C000E068012806D15748006A40F001005549ED
:1023D000086227E0E06858B95248006A20F001001E
:1023E000504908620846006A20F00400086219E0BB
:1023F000E06805280BD14B48006A40F004004949C9
:1024000008620846006A40F0010008620AE0454898
:10241000006A20F00100434908620846006A20F083
:102420000400086200BFE068A0B1FFF7B5F90546F7
:1024300009E0FFF7B1F9401B41F28831884202D927
:10244000032077E622E03748006A00F00200002807
:10245000EFD012E0FFF7A0F9054608E0FFF79CF97E
:10246000401B41F28831884201D9032062E62D48A1
:10247000006A00F002000028F0D1012F05D12948A0
:10248000C06920F080502749C86100BFE069C8B327
:102490002448406800F00C00082860D0E069022859
:1024A00048D1002020490866FFF776F9054606E086
:1024B000FFF772F9401B022801D903203AE61948B8
:1024C000006800F000700028F2D1206AB0F5803F6B
:1024D00007D11448406820F40030A168084311492E
:1024E0004860D4E9080108430E49496821F4741191
:1024F00008430C49486001200B490866FFF74CF976
:10250000054607E03DE0FFF747F9401B022801D9E7
:1025100003200FE60348006800F000700028F2D0A6
:102520002FE00000001002400000424280044242BE
:1025300000700040002014490866FFF72DF9054699
:1025400006E0FFF729F9401B022801D90320F1E535
:102550000E48006800F000700028F2D111E0E06938
:10256000012800D1E6E50948466806F48031206A72
:10257000814204D106F47011606A814201D00120C9
:10258000D8E50020D6E500000000424200100240DD
:102590007047704710B50346002200BF93F83C0017
:1025A000012801D1022010BD012083F83C0000BFAA
:1025B00022F0FF00CC6840EA040222F440708C68EC
:1025C00040EA040222F480604C6840EA040222F4EB
:1025D00000600C6840EA040222F480500C6940EA72
:1025E000040222F400504C6940EA040222F48040C4
:1025F000CC6940EA04021868426400BF002083F8F6
:102600003C0000BF00BFCEE730B502460B4600BF1E
:1026100092F83C00012801D1022030BD012082F84F
:102620003C0000BF022082F83D001068446810683A
:10263000816824F070041868044310684460104DE9
:102640001068A8420BD01068B0F1804F07D00D4D34
:102650001068A84203D00C4D1068A84205D121F0A3
:1026600080015868014310688160012082F83D00B4
:1026700000BF002082F83C0000BF00BFCDE7000093
:10268000002C0140000400400008004010B5044642
:102690000CB9012010BD94F83D0028B9002084F841
:1026A0003C00204600F026F8022084F83D00211D61
:1026B000206801F011FD012084F8460000BF84F875
:1026C0003E0001213F200155402001554120015588
:1026D00000BF00BF012084F8420043200155442080
:1026E00001554520015500BF012084F83D00002020
:1026F000D0E7000008B5094A016891420DD100BF3A
:102700000749896941F40061054A91611146896967
:1027100001F40061009100BF00BF08BD002C014022
:1027200000100240014691F83D00012801D001202F
:102730007047022081F83D000868C06840F0010041
:102740000B68D860124B086898420BD00868B0F14B
:10275000804F07D00F4B0868984203D00E4B086893
:1027600098420CD10868806800F00702062A0CD055
:102770000868006840F001000B68186005E0086810
:10278000006840F001000B6818600020D0E70000EE
:10279000002C014000040040000800402DE9F041F9
:1027A00004460D46002700BF94F83C00012802D1E2
:1027B0000220BDE8F081012084F83C0000BF022027
:1027C00084F83D002068866826F0770626F47F4668
:1027D000206886602868502833D00CDC202850D030
:1027E00004DC00284BD0102851D149E0302849D0D2
:1027F00040284CD139E060282DD0702807D0B0F5A2
:10280000805F03D0B0F5005F41D10DE041E0D5E934
:1028100002136A68206801F0B2FC2068866846F0FE
:1028200077062068866034E0D5E902136A6820687C
:1028300001F0A5FC2068806840F480402168886031
:1028400027E0EA686968206801F06AFD5021206885
:1028500001F0A0FC1DE0EA686968206801F073FDE2
:102860006021206801F096FC13E0EA68696820683E
:1028700001F056FD4021206801F08CFC09E000BF0A
:1028800000BF00BF2968206801F084FC01E0012737
:1028900000BF00BF012084F83D0000BF002084F885
:1028A0003C0000BF384684E7704770B50446206896
:1028B000C5682068066906F00200022819D105F0F3
:1028C0000200022815D1401F2168086101202077ED
:1028D0002068806900F0030018B12046FFF7E4FF8C
:1028E00005E0204600F0C4F8204600F078F900200A
:1028F000207706F00400042819D105F0040004280C
:1029000015D1C043216808610220207720688069C2
:1029100000F4407018B12046FFF7C6FF05E02046DE
:1029200000F0A6F8204600F05AF90020207706F0C3
:102930000800082819D105F00800082815D1C0435F
:1029400021680861042020772068C06900F0030036
:1029500018B12046FFF7A8FF05E0204600F088F8F0
:10296000204600F03CF90020207706F010001028E7
:1029700019D105F01000102815D1C0432168086155
:10298000082020772068C06900F4407018B1204604
:10299000FFF78AFF05E0204600F06AF8204600F0C5
:1029A0001EF90020207706F0010048B105F0010073
:1029B00030B16FF0010021680861204600F07AF91B
:1029C00006F08000802809D105F08000802805D11C
:1029D000C043216808612046FFF7DAFD06F0400099
:1029E000402809D105F04000402805D1C0432168A6
:1029F0000861204600F06AF906F02000202809D17D
:102A000005F02000202805D1C04321680861204638
:102A1000FFF7BFFD70BD000010B586B00446002072
:102A200002900390049005900E492068884216D1C8
:102A300000BF0D48806940F004000B4988610846DA
:102A4000806900F00400019000BF00BF881502906B
:102A500002200390059002A90448FEF707FD06B086
:102A600010BD0000002C0140001002400008014091
:102A700070472DE9F04104460D461646002700BF79
:102A800094F83C00012802D10220BDE8F081012029
:102A900084F83C0000BF36B1042E1BD0082E31D084
:102AA0000C2E5ED145E02946206801F07DFB2068B0
:102AB000806940F00800216888612068806920F002
:102AC00004002168886120688069296908432168B9
:102AD000886148E02946206801F096FB20688069FB
:102AE00040F40060216888612068806920F480607B
:102AF0002168886120688069296940EA012021688D
:102B0000886130E02946206801F0B2FB2068C06986
:102B100040F008002168C8612068C06920F0040006
:102B20002168C8612068C069296908432168C861B3
:102B300019E02946206801F0CFFB2068C06940F405
:102B400000602168C8612068C06920F48060216845
:102B5000C8612068C069296940EA01202168C8610C
:102B600001E0012700BF00BF00BF002084F83C0047
:102B700000BF384689E710B504460CB9012010BDE6
:102B800094F83D0028B9002084F83C00204600F06D
:102B900025F8022084F83D00211D206801F09CFAF0
:102BA000012084F8460000BF84F83E0001213F2048
:102BB0000155402001554120015500BF00BF0120B3
:102BC00084F8420043200155442001554520015519
:102BD00000BF012084F83D000020D0E77047704717
:102BE00070B504460D4615B994F83E000BE0042D6F
:102BF00002D13F20005D06E0082D02D14020005D9B
:102C000001E04120005D012801D0012070BD1DB907
:102C1000022084F83E000EE0042D03D102213F2063
:102C2000015508E0082D03D102214020015502E0A2
:102C300002214120015501222946206801F08EFA27
:102C400019492068884201D1012000E0002028B104
:102C50002068406C40F400402168486412492068B4
:102C600088420BD02068B0F1804F07D00F49206810
:102C7000884203D00E49206888420CD120688068C1
:102C800000F00706062E0CD02068006840F0010016
:102C90002168086005E02068006840F001002168B4
:102CA00008600020B2E70000002C01400004004052
:102CB0000008004010B5044603492068884201D14D
:102CC000FEF74AFF10BD0000000800407047F8B54D
:102CD00004460D46164694F8420020282DD105B131
:102CE0000EB90120F8BD0120206300206063324648
:102CF0002946204601F02EFD0746206B012819D1F8
:102D000000BF0020009020680068009020684068A4
:102D1000009000BF00BF00BF00BF21680C3151E828
:102D2000001F41F0100021680C3141E80002002A28
:102D3000F3D100E001273846D4E70220D2E70000B3
:102D400070B504460D460B492068884206D101F053
:102D5000AFF80C2208490948FFF7B9FF0849206875
:102D6000884206D100F0E0FF092206490648FFF735
:102D7000AEFF70BD00380140AC00002058040020B8
:102D8000004800400C000020A00400207047000014
:102D90002DE9F84F0446206805682068C668206859
:102DA00047694FF00009CA4605F00F09B9F1000F55
:102DB0000AD105F0200038B106F0200020B12046ED
:102DC00001F0CCFBBDE8F88FB9F1000F7BD007F024
:102DD000010018B906F49070002874D005F00100C5
:102DE00030B106F4807018B1606C40F0010060648E
:102DF00005F0040030B107F0010018B1606C40F03C
:102E00000200606405F0020030B107F0010018B163
:102E1000606C40F00400606405F0080048B106F002
:102E2000200010B907F0010018B1606C40F00800F4
:102E30006064606C002845D005F0200028B106F0E1
:102E4000200010B1204601F089FB20684069C0F3E2
:102E5000801A606C00F0080010B9BAF1000F2CD095
:102E6000204601F022FB2068406900F0400000B3DA
:102E700000BF00BF2168143151E8001F21F040005D
:102E80002168143141E80002002AF3D100BFE06B51
:102E900050B17748E16B4863E06BFEF72BF988B1DE
:102EA000E06B416B88470DE02046FFF76FFF09E0BC
:102EB00009E02046FFF76AFF04E02046FFF766FFBF
:102EC000002060647EE7206B012877D105F01000B8
:102ED000002873D006F010000028FAD000BF0020B0
:102EE000009020680068009020684068009000BF53
:102EF00000BF2068406900F0400000285FD0E06B10
:102F0000006840681FFA80F8B8F1000F55D0A08D16
:102F1000404552DDA4F82E80E06B8069202843D024
:102F200000BF00BF21680C3151E8001F21F4807000
:102F300021680C3141E80002002AF3D100BF00BF34
:102F400000BF2168143151E8001F21F00100216801
:102F5000143141E80002002AF3D100BF00BF00BFD6
:102F60002168143151E8001F21F04000216814311C
:102F700041E80002002AF3D100BF202084F842007B
:102F80000020206300BF00BF21680C3151E8001F02
:102F900021F0100021680C3141E80002002AF3D131
:102FA00000BFE06BFEF77AF802206063A08DE28D2F
:102FB000801A81B22046FFF7C3FE03E742E0A08DEE
:102FC000E18D401A1FFA80F8E08DD0B3B8F1000F00
:102FD00037D000BF00BF21680C3151E8001F21F439
:102FE000907021680C3141E80002002AF3D100BF43
:102FF00000BF00BF2168143151E8001F21F001001B
:103000002168143141E80002002AF3D100BF2020DA
:1030100084F842000020206300BF00BF21680C310B
:1030200051E8001F21F0100021680C3141E8000236
:10303000002AF3D100BF0220606341462046FFF71B
:103040007FFEBFE605F0800030B106F0800018B1C9
:10305000204601F0E3FBB5E605F0400030B106F094
:10306000400018B1204601F056FAABE600BFA9E6D1
:103070006F43000810B504460CB9012010BDA069CB
:1030800000B100E000BF94F8410028B9002084F8A6
:103090004000204600F02AF8242084F841002068EF
:1030A000C06820F400502168C860204601F0D4FABE
:1030B0002068006920F49040216808612068406918
:1030C00020F02A00216848612068C06840F4005060
:1030D0002168C86000206064202084F8410084F8E2
:1030E00042000020606300BFC8E7000010B586B052
:1030F00004460020029003900490059057492068F0
:10310000884252D100BF5648806940F480405449FB
:1031100088610846806900F48040019000BF00BFCC
:1031200000BF0846806940F0040088610846806955
:1031300000F00400019000BF00BF4815029002207B
:1031400003900320059002A94648FEF78FF94FF43B
:103150008060029000200390049002A94148FEF78D
:1031600085F94148414908600020486000213F48F6
:1031700081608021C1600021016141612021816164
:103180000021C161FEF7DCF808B1FDF716FC00BFB5
:103190003648E063446200BF002205212520FEF787
:1031A00095FD2520FEF782FD56E0314920688842D2
:1031B00052D100BF2A48C06940F480202849C86124
:1031C0000846C06900F48020019000BF00BF00BF26
:1031D0000846806940F0080088610846806900F070
:1031E0000800019000BF00BF081502900220039064
:1031F0000320059002A91F48FEF738F94FF400603C
:10320000029000200390049002A91A48FEF72EF9BC
:1032100015482838184908600020486000211648E1
:1032200081608021C16000210161416120218161B3
:103230000021C161FEF784F808B1FDF7BEFB00BFB5
:103240000D48E063446200BF002205212720FEF7FD
:103250003DFD2720FEF72AFD06B010BD00380140D5
:10326000001002400008014058000240E80400201D
:1032700000480040000C01402C05002070477047BA
:10328000704700BFFEE7014608684069C0F3802030
:10329000B0B16FF480600A6850610020086320209C
:1032A00081F83D00002081F83E00086C40F00400E9
:1032B000086400BF002081F83C0000BF0120704777
:1032C0000020FCE72DE9F84304460D4617469846D2
:1032D000E66A082E04D0012E02D016F5803F06D1F2
:1032E0002068006840F480702168086008E0206B66
:1032F000122805D12068006840F4807021680860B9
:103300003B4600224FF001112046CDF8008000F02E
:103310006CF860B12068006800F48070B0F5807FC0
:1033200002D14FF4007020640320BDE8F8832069C7
:10333000B0F5804F04D105F0FE002168086112E06D
:1033400005F44070F02141EAE0102168086143462D
:103350003A460B49204600F0A7F808B10120E4E7FF
:10336000E8B22168086143463A460549891F20466C
:1033700000F09AF808B10120D7E70020D5E7000057
:103380000800010070B504460D46164625E02046AB
:10339000FFF779FF08B1012070BD681CE8B1FEF7A6
:1033A000FBF9801BA84200D8BDB920684069C0F372
:1033B000800090B900202063202084F83D00002088
:1033C00084F83E00206C40F02000206400BF002004
:1033D00084F83C0000BF0120DEE720684069C0F3AC
:1033E00080000028D3D00020D6E72DE9F041044624
:1033F0000D4617461E46DDF8188038E0701CA8B34D
:10340000FEF7CAF9A0EB0800B04200D876BBC5F3BE
:10341000074001280AD120684069A9B20840A9B232
:10342000884201D101200BE0002009E0206880697A
:10343000A9B20840A9B2884201D1012000E00020D1
:10344000B84214D100202063202084F83D000020E1
:1034500084F83E00206C40F02000206400BF002073
:1034600084F83C0000BF0120BDE8F081FFE7C5F310
:10347000074001280AD120684069A9B20840A9B2D2
:10348000884201D101200BE0002009E0206880691A
:10349000A9B20840A9B2884201D1012000E0002071
:1034A000B842ABD00020DFE72DE9F04104460D46DD
:1034B00016461F4658E020684069C0F38020E8B1F6
:1034C0002068006840F40070216808606FF4806034
:1034D0002168486100202063202084F83D000020FE
:1034E00084F83E00206C40F00400206400BF0020FF
:1034F00084F83C0000BF0120BDE8F081701C90B34F
:10350000FEF74AF9C01BB04200D866BBC5F30740BE
:1035100001280AD120684069A9B20840A9B28842AE
:1035200001D101200BE0002009E020688069A9B2E8
:103530000840A9B2884201D1012000E0002090B9E2
:1035400000202063202084F83D00002084F83E0005
:10355000206C40F02000206400BF002084F83C0074
:1035600000BF0120C8E7FFE7C5F3074001280AD1E3
:1035700020684069A9B20840A9B2884201D101205F
:103580000BE0002009E020688069A9B20840A9B2D8
:10359000884201D1012000E0002000288BD00020CB
:1035A000AAE770B504460D46164625E02046FFF70B
:1035B0006AFE08B1012070BD681CE8B1FEF7ECF8A6
:1035C000801BA84200D8BDB920684069C0F3C01074
:1035D00090B900202063202084F83D00002084F86A
:1035E0003E00206C40F02000206400BF002084F8E2
:1035F0003C0000BF0120DEE720684069C0F3C01036
:103600000028D3D00020D6E70EB50020009001900E
:10361000029013481349086000211248816001217B
:103620000173002101754FF46021C16100200D4933
:10363000486001210B480161FDF76CFB08B1FDF703
:10364000BCF9022000900120019000200290694600
:103650000448FDF723FA08B1FDF7AFF90EBD0000ED
:10366000002401404803002008B500BF124840690B
:1036700040F00100104948610846406900F001002F
:10368000009000BF00BF002205210B20FEF71EFBAB
:103690000B20FEF70BFB002205210D20FEF716FB89
:1036A0000D20FEF703FB002205210F20FEF70EFB85
:1036B0000F20FEF7FBFA08BD0010024000B58FB0E6
:1036C0001C220C4908A8FCF78BFD002108A801F07A
:1036D00086FA094908601C2206491C3101A8FCF73A
:1036E0007FFD002101A801F07AFA044908600FB0BB
:1036F00000BD0000C85B0008240000202800002056
:1037000000B585B00020019002900390049000BFA6
:103710002C48806940F010002A4988610846806979
:1037200000F01000009000BF00BF00BF0846806995
:1037300040F0200088610846806900F02000009079
:1037400000BF00BF00BF0846806940F004008861E8
:103750000846806900F00400009000BF00BF00BF71
:103760000846806940F0080088610846806900F0DA
:103770000800009000BF00BF00224FF460411248D3
:10378000FEF704F8012202211048FDF7FFFF4FF475
:1037900060400190012002900020039002200490DC
:1037A00001A90948FDF762FE022001900120029064
:1037B00003900220049001A90448FDF757FE05B0CC
:1037C00000BD00000010024000100140000C01404C
:1037D00010B50B480B4908600B48486000210948A8
:1037E0008160C1604FF480410161002141618161CC
:1037F000C1610162FDF7D6FF08B1FDF7DEF810BD2B
:1038000000540040BC030020A086010000B595B024
:10381000002011901290139014900F9010901C2182
:1038200008A8FCF7F6FC20216846FCF7F2FC2B48C0
:103830002B4908600020486000212948816040F23F
:103840009F51C1600021016141618161FEF71EFF4E
:1038500008B1FDF7B2F84FF48050119011A920483B
:10386000FEF79CFF08B1FDF7A8F81D48FFF783F9A4
:1038700008B1FDF7A2F800200F9010900FA918488A
:10388000FEF7C2FE08B1FDF798F86020089000200E
:1038900009900A900B900C900D900E90002208A9B0
:1038A0000F48FFF7E6F808B1FDF787F80020009011
:1038B00001900290039004904FF400500590002076
:1038C000079069460648FEF765FE08B1FDF775F8F2
:1038D0000348FFF7A1F815B000BD0000002C01401F
:1038E0001004002010B50B480B4908604FF4E1307C
:1038F0004860002108488160C16001610C2141617C
:1039000000218161C161FFF7B5FB08B1FDF755F8F2
:1039100010BD0000003801405804002010B50B48CD
:103920000B4908604FF4E13048600021084881608D
:10393000C16001610C21416100218161C161FFF71A
:1039400099FB08B1FDF739F810BD000000480040B0
:10395000A004002000BFFEE700BFFEE700200CE04F
:10396000002106E00022064B03EBC0135A544A1C08
:10397000D1B28029F6DB421CD0B20828F0DB7047B8
:10398000B80500202DE9F04304460D4616461F46B3
:10399000284638E0224631E0002A2DDB7F2A2BDC46
:1039A000002829DB3F2827DC4FEAE07C00EB5C7C29
:1039B0004FEAEC0CDFF8588008EBCC1C1CF802C076
:1039C00003464FEAE07800EB58784FEAE808A0EBAE
:1039D000C8094FF0010808FA09F82CEA080C01465A
:1039E0004FEAE07800EB58784FEAE808DFF82090DB
:1039F00009EBC81808F802C0511C0AB2A11991427B
:103A0000CADC411C08B2E9198142C3DCBDE8F0837D
:103A1000B805002010B56420FDF714FDAE2000F0BD
:103A2000EBF8D52000F0E8F8802000F0E5F8A820B9
:103A300000F0E2F83F2000F0DFF8D32000F0DCF8DF
:103A4000002000F0D9F8402000F0D6F8A12000F0C6
:103A5000D3F8C82000F0D0F8DA2000F0CDF812201A
:103A600000F0CAF8812000F0C7F8CF2000F0C4F8B9
:103A7000D92000F0C1F8F12000F0BEF8DB2000F002
:103A8000BBF8302000F0B8F8A42000F0B5F8A6206C
:103A900000F0B2F88D2000F0AFF8142000F0ACF880
:103AA000AF2000F0A9F8FFF759FF00F091F810BD22
:103AB00070B505460C4645F0B00000F09DF81021A9
:103AC00041EA141000F098F804F00F0000F094F8A8
:103AD00070BD00002DE9FF4F80460E469146DDF88F
:103AE00034B0002500244A4631464046039BFFF788
:103AF00049FF00BF5EE0002558E008EB0500002804
:103B000052DB08EB05007F284EDC3046F11706EB50
:103B10005171C9100FB2F11706EB5171C910A6EB24
:103B2000C10A002E05DA781E07B20AF108000FFA62
:103B300080FA3819002817DB3819072814DC3819DF
:103B4000224901EBC01008EB0501405C04FB095160
:103B50001BF8011001FA0AF1084339191B4A02EB5C
:103B6000C11108EB050288543819401C00281BDBE2
:103B70003819401C072817DC3819401C134901EB81
:103B8000C01008EB0501405C04FB09511BF8011053
:103B9000CAF10802114108433919491C0B4A02EBCA
:103BA000C11108EB05028854681CC5B24D45A4DB61
:103BB000601CC4B20399481EC11700EB5171012269
:103BC00002EBE101A14296DCBDE8FF8FB8050020C1
:103BD00010B500240BE000212046FFF769FF0549DE
:103BE00001EBC410802100F019F8601CC4B2082C4D
:103BF000F1DB10BDB80500201CB504460020019083
:103C00008DF805406420022301AA78210090024823
:103C1000FDF7B0FE1CBD0000BC03002070B5A2B0D3
:103C200006460C461EE0802C01DD802000E0204688
:103C3000054640208DF80400002004E0325C411C61
:103C400001AB5A5488B2A842F8DB64200090681C8B
:103C500083B201AA78210548FDF78CFE2E44601B33
:103C600084B200BF002CDED122B070BDBC030020A6
:103C700070B504462169A068FCF728FB60616169A2
:103C80006068FCF729FB0546A169FCF7CDFAA06145
:103C9000616AA069FCF75EFC01D2606AA061216ADA
:103CA000A069FCF74DFC01D2206AA061616920681F
:103CB000FCF712FB0546A169FCF7B6FAE061616A00
:103CC000E069FCF747FC01D2606AE061D4E90701D2
:103CD000FCF736FC01D2206AE06170BD2DE9F041AD
:103CE00004460C4820600C4860600C48A060A06846
:103CF000FCF7F6FB07460022094BFCF75DFB054687
:103D0000FCF701FCE0600020A061206205486062D1
:103D1000BDE8F081000020420000A04100004041C9
:103D20000000F03F0080A2442DE9F047FDF734FD8C
:103D3000044600201DE05449095C982918D1524AD4
:103D4000811C515C342913D11346421C995C4F4AA3
:103D50004F4B1B78D1544E4A1278521C072392FBCA
:103D6000F3F503FB15224A4B1A704A4A117000BF43
:103D7000401C0728DFDB47480078442821D00BDCB3
:103D8000112826D003DCA0B101286DD116E022282D
:103D900015D0332868D113E0772828D004DC5528C3
:103DA0001ED0662860D13CE0882832D0FF285BD145
:103DB00000E000BF01203849088059E000BF00BF83
:103DC00000BF4FF0824035498860052032490880A5
:103DD0004EE033483149886004202F49088047E08D
:103DE0002F482E49886003202B49088040E04FF47B
:103DF000FA70B4FBF0F000F0010018B92948274927
:103E0000886002E00020254988600220224908805D
:103E10002EE04FF082402149886006201E4908802C
:103E200026E02046FCF743FB81461F49FCF754FA85
:103E3000804601F0FBF907464FF07E51FCF7F4F99C
:103E400006464FF08041FCF779FA054617492846A7
:103E5000FCF742FA06461549FCF7E6F90F49886077
:103E600001200D49088003E001200B49088000BFB4
:103E700000BF0A4880680949C86003480021016002
:103E80004160BDE8F08700000C0000201C0000200D
:103E900023000020150000203C000020B800002076
:103EA00000007041000040416F12033B0000C04021
:103EB00070B5002484E04448005DFF287BD142496E
:103EC000E01C085CAF2876D1601C0D5CFE203F49E9
:103ED0000870442D42D006DC112D09D0222D1FD0B0
:103EE000332D65D133E0772D3FD0882D60D14DE063
:103EF0004FF082403649886002203649088001220E
:103F000001033548FDF742FC00224FF4804132485E
:103F1000FDF73CFC0122D1032F48FDF737FC48E0B8
:103F200000202B49886004202A4908800022C10211
:103F30002948FDF72BFC00224FF480412648FDF76D
:103F400025FC002202212448FDF720FC31E0234813
:103F50001F49886003201F4908802AE020481C4927
:103F6000886001201B49088023E0012251031A4880
:103F7000FDF70CFC00224FF480411748FDF706FCCA
:103F80000122D1031448FDF701FC12E000224FF496
:103F900000511148FDF7FAFB00224FF480410E4812
:103FA000FDF7F4FB002202210B48FDF7EFFB00BFF9
:103FB00000BF00BF00BF0B210348FCF72AF9641CB7
:103FC000072CFFF678AF70BDAC0000201500002074
:103FD000B80000203C0000200010014000004041DB
:103FE0000000704108B508490968C9084FF47A72A1
:103FF000B1FBF2F14143009100BF00BF00994A1E9E
:1040000000920029F9D108BD3800002010B500BF8A
:10401000502080F31188BFF34F8FBFF36F8F00BF25
:1040200001F0ACFC18B14FF080500449086000BFAB
:10403000002080F3118800BF10BD000004ED00E0F7
:1040400000B593B0282109A8FCF7E3F8142104A8CF
:10405000FCF7DFF80020009001900290039001200F
:10406000099000040A9000200B9001200D9002207E
:104070001090C10311914FF4E011129109A8FEF7BD
:1040800055F808B1FCF799FC0F2004900220059028
:10409000002006904FF480600790002008900221D5
:1040A00004A8FDF7FDFE08B1FCF787FC0220009094
:1040B000800302906846FDF75BFE08B1FCF77DFCCB
:1040C00013B000BD7047000010B50248FEF7EDFBCD
:1040D00010BD00007005002010B502681C4B98420E
:1040E00008D0B0F1804F05D01A4B984202D01A4B3D
:1040F000984203D122F070024B681A43144B984245
:1041000008D0B0F1804F05D0124B984202D0124B2C
:10411000984203D122F44072CB681A4322F0800304
:104120004C6943EA040202608B68C3620B688362D5
:10413000074B984201D10B69036301234361036973
:1041400003F001031BB1036923F00103036110BDF8
:10415000002C0140000400400008004030B501F090
:104160001F05012404FA05F3046A9C430462046AEF
:1041700001F01F0502FA05F52C43046230BD30B58D
:104180000C46816821F47F4142EA032525432943F7
:10419000816030BD0A46816821F0700142F007035A
:1041A000194381607047000030B5026A056A25F046
:1041B000010505624368846924F0700424F0030457
:1041C0000D682C4322F002028D682A430D4DA8424F
:1041D00006D100BF22F00802CD682A4322F0040273
:1041E000084DA84207D123F4807323F400734D696E
:1041F0002B438D692B43436084614D6845630262A4
:1042000030BD0000002C014030B5026A056A25F07F
:10421000100505624368846924F4E04424F4407482
:104220000D6844EA052422F020028D6842EA051256
:104230000E4DA84207D100BF22F08002CD6842EAAD
:10424000051222F04002094DA84209D123F48063EF
:1042500023F400634D6943EA85038D6943EA8503CE
:10426000436084614D688563026230BD002C01406B
:1042700030B5026A056A25F4807505624368C46931
:1042800024F0700424F003040D682C4322F400721F
:104290008D6842EA05220F4DA84207D100BF22F4E3
:1042A0000062CD6842EA052222F48062094DA842EC
:1042B00009D123F4805323F400534D6943EA0513D5
:1042C0008D6943EA05134360C4614D68C5630262AA
:1042D00030BD0000002C014030B5036A056A25F4AA
:1042E000805505624468C26922F4E04222F44072BB
:1042F0000D6842EA052223F400538D6843EA053332
:10430000064DA84204D124F480444D6944EA851442
:104310004460C2614D680564036230BD002C0140F9
:1043200030B50B461446026A056A25F001050562A0
:10433000816921F0F00141EA041122F00A021A43D6
:104340008161026230BD30B50B461446026A056ACF
:1043500025F010050562816921F4704141EA0431BC
:1043600022F0A00242EA03128161026230BD70B500
:1043700005466C6A0020E085E0842046FEF706FDD5
:1043800070BD70B506460025746A20684069C0F3A8
:10439000C01594F84100212805D125B10020E08402
:1043A000204600F0C8F820684069C0F3801594F8F2
:1043B0004200222805D125B10020E085204600F0EA
:1043C00074F8606C40F0100060642046FEF7DEFC7C
:1043D00070BD70B505466C6A2868006800F0200062
:1043E000002842D1E08500BF00BF21680C3151E8B0
:1043F000001F21F4807021680C3141E80002002A7E
:10440000F3D100BF00BF00BF2168143151E8001F85
:1044100021F001002168143141E80002002AF3D1A3
:1044200000BF00BF00BF2168143151E8001F21F018
:1044300040002168143141E80002002AF3D100BF96
:10444000202084F84200206B01280ED100BF00BF5D
:1044500021680C3151E8001F21F0100021680C3157
:1044600041E80002002AF3D100BF00206063206B06
:10447000012804D1A18D2046FEF762FC02E020460F
:10448000FEF7FCFE70BD70B505466C6A01206063E6
:10449000206B012805D1A08D41082046FEF750FC75
:1044A00002E02046FEF7EBFE70BD00BF00BF0268D1
:1044B0000C3252E8002F22F4907102680C3242E86C
:1044C0000013002BF3D100BF00BF00BF02681432FD
:1044D00052E8002F22F001010268143242E8001372
:1044E000002BF3D100BF016B01290ED100BF00BF2B
:1044F00002680C3252E8002F22F0100102680C32E0
:1045000042E80013002BF3D100BF202180F84210B5
:1045100000210163704710B504462068C06820F090
:1045200040002168C860202084F841002046FEF742
:10453000A7FE002010BD00BF00BF02680C3252E889
:10454000002F22F0C00102680C3242E80013002B59
:10455000F3D100BF202180F841107047F8B5044620
:1045600094F84200222875D1A068B0F5805F0CD184
:10457000206950B90025A66A20684068C0F3080089
:104580003080A06A801CA06215E0A56A0026A068A1
:10459000B0F5805F03D0A06828B9206918B92068F9
:1045A0004068287004E02068406800F07F002870B0
:1045B000A06A401CA062E08D401E80B2E085002809
:1045C00046D12068C06820F020002168C8602068BB
:1045D000C06820F480702168C8602068406920F0BD
:1045E000010021684861202084F8420000206063B7
:1045F000206B012826D10020206300BF00BF216866
:104600000C3151E8001F21F0100021680C3141E805
:104610000002002AF3D100BF2068006800F01000FB
:1046200010280AD100BF0020009020680068009088
:1046300020684068009000BF00BFA18D2046FEF7B3
:104640007FFB02E02046FEF719FE0020F8BD01E0E6
:104650000020FBE70220F9E770B5044621680969EC
:1046600021F44051E2681143226811612269A16876
:104670001143626941EA02052168C96841F20C628E
:10468000914329432268D1602168496921F440712E
:10469000A2691143226851612D4A2168914202D1D9
:1046A000FDF7FCFC01E0FDF7E9FC00EBC00101EBCC
:1046B000001162689200B1FBF2F100EBC00202EB64
:1046C000001263689B00B2FBF3F26423B2FBF3F2C7
:1046D00002EBC20303EB0212A1EB8201322202EBD6
:1046E00001116422B1FBF2F101F0F00100EBC00214
:1046F00002EB001263689B00B2FBF3F26423B2FB8F
:10470000F3F201EB021200EBC00101EB0011636850
:104710009B00B1FBF3F100EBC00303EB00136668F1
:10472000B600B3FBF6F36426B3FBF6F303EBC30664
:1047300006EB0313A1EB8301322303EB0111642386
:10474000B1FBF3F101F00F0111442268916070BDDB
:104750000038014077B581B0044615460298A06242
:10476000A58500206064222084F842002848E16B7F
:1047700088622848E16BC8622748E16B0863002023
:10478000E16B486302AE32682368191D2B46E06B6B
:10479000FCF70AFE00BF002000902068006800902F
:1047A00020684068009000BF00BF206970B100BF62
:1047B00000BF21680C3151E8001F41F4807021686E
:1047C0000C3141E80002002AF3D100BF00BF00BF56
:1047D0002168143151E8001F41F0010021681431B3
:1047E00041E80002002AF3D100BF00BF00BF2168EA
:1047F000143151E8001F41F040002168143141E8B4
:104800000002002AF3D100BF002004B070BD0000F8
:10481000D34300088744000883430008014691F809
:104820004100212828D18868B0F5805F0BD1086944
:1048300048B90A6A1088C0F308000B685860086A13
:10484000801C086205E00B6A581C086218780B6827
:104850005860C88C401E80B2C88458B90868C068C7
:1048600020F080000B68D8600868C06840F0400005
:104870000B68D860002070470220FCE710B50248A2
:10488000FEF786FA10BD00005804002010B502485B
:10489000FEF77EFA10BD0000A004002000BFFEE776
:1048A0004100080218BF04200A0E18BF40F00100A2
:1048B0004FF07F4232EA010108BF40F002000128B8
:1048C00008BF05207047000002480068C0F30220BE
:1048D000704700000CED00E010B5002804DB0A076B
:1048E000130E054A135406E00A07140E034A00F09B
:1048F0000F031B1FD45410BD00E400E018ED00E0CE
:104900000121FBF71DBF00210846FBF717BD6FF023
:104910005E010807FBF714BF2DE9F04D0D46144664
:104920004FF07F41B1EB440F9EBF4FF0FF31296044
:10493000BDE8F08D4FF0004040EA0421C4F3C750B9
:10494000783810F01F024A4B4FEA601CC2F1200673
:104950007B44C4F3C750A0F178004FEA601003EB2A
:10496000800053F82C3008BFD0E901C612D0D0F82F
:1049700004C093402CFA06F73B4387680CFA02FC0C
:1049800027FA06F8C06807FA02F2F0404CEA080C71
:1049900042EA0006A3FB0132ACFB01C0A6FB0161A9
:1049A00001EB0C068E4234BF4FF0010C4FF0000CAF
:1049B000C1186144BCF1000F02D0814202D903E06A
:1049C000814201D2012000E00020104400F12002C9
:1049D0004FEA92188006CA0C40EA42304F03C5F8ED
:1049E0000080FBF75BFD82463846FBF760FD6FF009
:1049F0001201FBF7A5FE07463046FBF758FD6FF0A6
:104A00002501FBF79DFE834639465046FBF70CFC1B
:104A10005946FBF709FC00F500666FF30B0651469B
:104A20003046FBF753FC3946FBF750FC5946FBF781
:104A300050FC1049FBF750FC07460F493046FBF786
:104A40004BFC3946FBF7F0FB07460C493046FBF7B9
:104A500043FC3946FBF7E8FB14F0004F08BFBDE804
:104A6000F08DC8F1805180F000402960BDE8F08DE4
:104A700020370000DB0FC92F22AAFD290000C92F13
:104A800002E008C8121F08C1002AFAD17047704717
:104A9000002001E001C1121F002AFBD17047000075
:104AA0000149086070470000A800002010B5FBF71E
:104AB00089FE08480068084908610846FFF7D8F8E9
:104AC0000549C869FBF7F8FC80B2044909684863E6
:104AD00010BD000008000020B800002010040020D5
:104AE00000BFFFF7E3FF012000F068F8F9E70000DE
:104AF00008B5FDF73DF8FFF7A3FAFEF701FEFEF754
:104B0000B3FDFEF781FDFEF7EDFEFEF77FFEFEF73B
:104B100005FFFEF75DFE1648FFF7E0F80A2215498B
:104B20001548FCF7FBF900211448FEF759F8FEF789
:104B300071FF134840238022002100900846FEF7B1
:104B4000C9FFFFF745F80C220E490F48FEF7BFF8E2
:104B500009220E490E48FEF7BAF84FF47A70FCF7B6
:104B600071FCFEF7ABFD00F035F800BFFEE700007A
:104B7000B8000020E00000204803002010040020BE
:104B800074740008AC000020580400200C000020C1
:104B9000A004002001460020842901D0CA1C104432
:104BA000704710B5FBF70CFFFFF712F810BD00BF00
:104BB000FFF7F7FF012000F001F8F9E770B50446B0
:104BC00025460DB1294600E00121084600F0F6FC1B
:104BD000002070BD10B500F01FFD002010BD7FB596
:104BE00004460D46606998B1A06988B1B4F908001F
:104BF000FFF7D0FF0646D4E90510CDE90061029029
:104C00002B462269D4E9001000F05AFE039013E00D
:104C1000B4F90800FFF7BEFF064603A8CDE900601F
:104C2000238A9AB22B46D4E9001000F017FE01281F
:104C300002D0002004B070BD0398FBE72DE9F041DD
:104C400005460E461C4807681C480068001D00F019
:104C5000B1FB50B91948006890F82C100120884029
:104C600017490968814316480160681C38B936B194
:104C700012480168091D134800F0E6FB1AE07C1990
:104C80000E4800684460BC4207D20C480168091D08
:104C90000D48006800F0BEFB0CE008480168091DE3
:104CA0000A48006800F0B6FB09480068844201D257
:104CB00007480460BDE8F081540000204000002057
:104CC00058000020940A00204800002044000020E2
:104CD0007000002010B5044600F0C2FB23480068B5
:104CE000401C224908602248006840B920480460FE
:104CF0000846006801280DD100F03EF90AE01D4881
:104D0000006838B91A480068C06AE16A884201D868
:104D10001748046018480068401C1749086094F858
:104D20002C10012088401549096808431349086080
:104D3000E16A01EB8101124A02EB8100211D00F0C2
:104D400083FB00F0B7FB0B48006868B108480068B7
:104D5000C06AE16A884207D24FF080500949086072
:104D6000BFF34F8FBFF36F8F10BD000050000020C6
:104D7000400000205C0000206C0000205800002053
:104D8000B809002004ED00E010B516E000F068FB63
:104D90000C48C068C468201D00F00CFB0A4800687D
:104DA000401E0949086009480068401E074908601C
:104DB00000F080FB204600F00BF804480068002853
:104DC000E4D110BD800A0020500000204C000020DB
:104DD00010B5044694F8510030B9206B00F088FB00
:104DE000204600F085FB1AE094F85100012803D119
:104DF000204600F07DFB12E094F85100022801D11A
:104E0000012000E0002050B900BF502080F311883D
:104E1000BFF34F8FBFF36F8F00BF00BFFEE710BD22
:104E200030B54FF44063174800F007042CB1C01DA3
:104E300020F00700134C041B1B1B0246124C22607F
:104E40000024114D6C60D018083820F007000F4C7A
:104E5000206000240D4D2D686C600C4D2D682C6079
:104E60001146441A4C60094C24680C60084D4C688B
:104E70002C60084D4C682C604FF00044064D2C60AF
:104E800030BD0000A80A00207C0000208400002023
:104E90008C000020880000209800002000BFFFF751
:104EA00073FF064800680128F9D94FF08050044983
:104EB0000860BFF34F8FBFF36F8FF0E7B809002092
:104EC00004ED00E02DE9FF5F81460E469246DDE9E4
:104ED0000E7B109CAAF10100216B01EB800828F0E9
:104EE000070808F0070008B9012000E0002050B9C9
:104EF00000BF502080F31188BFF34F8FBFF36F8F37
:104F000000BF00BFFEE786B1002507E0715D04F138
:104F100034004155705D00B902E06D1C102DF5D3D1
:104F200000BF00214320015502E0002084F8340036
:104F3000072F00D30627E76267640020A064201DC6
:104F400000F065FA04F1180000F061FA2461C7F17D
:104F50000700A06164620020E06484F850004946C4
:104F60004046039A00F050F92060BBF1000F01D0D9
:104F7000CBF80040BDE8FF9F10B5002407E004EB2C
:104F800084010F4A02EB810000F034FA641C072C04
:104F9000F5D30C4800F02EFA0B4800F02BFA0B4822
:104FA00000F028FA0A4800F025FA0A4800F022FA30
:104FB00004480949086004480849086010BD000019
:104FC000B8090020440A0020580A00206C0A00207A
:104FD000800A0020940A002044000020480000209D
:104FE00010B50146164800E0006803688B42FBD309
:104FF0000246436813448B4204D143684C682344FF
:10500000436001460A464B6813440468A34211D129
:105010000C4C03682468A34208D04B680468646899
:1050200023444B6003681B680B6005E0054B1B685D
:105030000B6001E003680B60884200D0016010BD86
:105040007C000020840000200A490968096809B929
:10505000012100E0002121B14FF0FF31064A11602B
:1050600006E004490968C968C868034A41681160D4
:105070007047000044000020700000200E480068C7
:10508000401C08B9012000E0002050B900BF5020AA
:1050900080F31188BFF34F8FBFF36F8F00BF00BF46
:1050A000FEE700BF502080F31188BFF34F8FBFF39E
:1050B0006F8F00BF00BFFEE79C0000202DE9F0418C
:1050C00004464FF0000800F0FFFA4948006808B9AC
:1050D000FFF7A6FE474800682040002870D1D4B1F1
:1050E000083404F00700B0B104F00700C0F1080074
:1050F000044404F0070008B9012000E0002050B982
:1051000000BF502080F31188BFF34F8FBFF36F8F24
:1051100000BF00BFFEE7002C52D037480068844231
:105120004ED8364E3046056801E02E462D68686838
:10513000A04202D228680028F7D12D480068854295
:105140003ED0306800F10808286830606868001BAD
:10515000102819D92F1907F0070008B9012000E01D
:10516000002050B900BF502080F31188BFF34F8F4B
:10517000BFF36F8F00BF00BFFEE76868001B786059
:105180006C603846FFF72CFF1B4968680968081AED
:10519000194908600846006819490968884203D21D
:1051A000154800681649086012496868096808438C
:1051B00068600020286013480068401C114908609E
:1051C00000F080FC08F0070008B9012000E0002092
:1051D00050B900BF502080F31188BFF34F8FBFF349
:1051E0006F8F00BF00BFFEE74046BDE8F0810000C2
:1051F0008400002098000020880000207C0000200F
:105200008C00002090000020001F4FF0807303608E
:10521000001F21F001030360001F034B03601438DB
:1052200002602038704700007D5000082DE9F843E7
:105230000446024652486946B0EB420F09D94FF086
:10524000E640B0EB420F94BF00204FF0FF300090DB
:1052500030E04C4B22F00040834271D94A4920464D
:10526000FBF73AF8FBF7C6F98046FBF73EFA00F089
:105270000300009045494046FBF72EF80546444997
:105280004046FBF729F8064642494046FBF724F81A
:10529000074641494046FBF71FF82146FBF719F83E
:1052A0003946FBF713F83146FBF710F82946FBF7B0
:1052B0000DF804462546009C002C45DB294614F0D9
:1052C000010F08461ED0FBF707F805463349FBF7E8
:1052D00003F83349FAF7A8FF2946FAF7FDFF3149E9
:1052E000FAF7A2FF2946FAF7F7FF4FF07E51FAF7D7
:1052F0009BFF14F0020F08BFBDE8F88380F0004068
:10530000BDE8F883FAF7E8FF06462749FAF7E4FF15
:105310002649FAF7DEFF3146FAF7DEFF2449FAF7AD
:1053200083FF3146FAF7D8FF2946FAF7D5FF294619
:10533000FAF77AFF14F0020FE0D1BDE8F883FFE737
:105340001046FFF7E9FAB4E76800B0F17F4F09D2E1
:105350002846FFF7A5FA042808BFFFF7D8FA284621
:10536000BDE8F88306D10120FFF79AFBBDE8F843BA
:10537000FFF7C9BA2846BDE8F843FFF7C1BA0000F5
:10538000B61F927E490E494683F9223F1A61342C9A
:105390000020A23300A0FD390000C93FB93AB2BADB
:1053A000CA9F2A3DDDFFFFBE336D4C39DA82083CCF
:1053B000A0AA2ABE01460A69D1E901309860D1E964
:1053C000010358605068884201D18868506000200D
:1053D00008611068401E106010687047034B03603E
:1053E000034B0B608023136070470000F400002023
:1053F0004801002000F1080141604FF0FF31816059
:1054000000F10801C16001610021016070470021C5
:105410000161704710B502460B685C1C0CB910693D
:1054200007E002F1080000E04068446824689C42FC
:10543000FAD944684C604C68A160886041600A6198
:105440001468641C146010BD42684A6093688B60E5
:10545000936859609160086103685B1C0360704742
:1054600000BF502080F31188BFF34F8FBFF36F8FC1
:1054700000BF0E480068401C0C49086008460068E0
:10548000012812D10A480068C0B208B9012000E022
:10549000002050B900BF502080F31188BFF34F8F18
:1054A000BFF36F8F00BF00BFFEE770479C00002076
:1054B00004ED00E00D48006850B900BF502080F3B3
:1054C0001188BFF34F8FBFF36F8F00BF00BFFEE7A0
:1054D00006480068401E054908600846006820B973
:1054E000002080F3118800BF00BF70479C0000209F
:1054F00070B506463546002E44D0083D2C4622495C
:1055000060680968084008B1012000E0002050B937
:1055100000BF502080F31188BFF34F8FBFF36F8F10
:1055200000BF00BFFEE7206808B9012000E00020AE
:1055300050B900BF502080F31188BFF34F8FBFF3E5
:105540006F8F00BF00BFFEE70F4960680968084021
:10555000C0B12068B0B90C496068096888436060D0
:1055600000F0B2F809496068096808440749086012
:105570002046FFF735FD06480068401C04490860D6
:1055800000F0A0FA70BD0000980000208800002004
:105590009400002000204FF0E02108618861064857
:1055A00000684FF47A71B0FBF1F0401E4FF0E0213B
:1055B00048610720086170473800002070B5044634
:1055C0000025D4B11248006808B9012000E000208D
:1055D00050B900BF502080F31188BFF34F8FBFF345
:1055E0006F8F00BF00BFFEE700F06EF8002120467D
:1055F000FFF724FB00F066FA05463DB94FF08050F6
:1056000004490860BFF34F8FBFF36F8F70BD000078
:105610007800002004ED00E010B586B00020059071
:10562000049003AA04A905A8FFF7D8FE0022DDE92B
:1056300004101346CDE9002102901CA11D48039AD5
:1056400000F03EF91C4908600846006808B10124D2
:1056500000E00024012C15D100BF502080F31188F8
:10566000BFF34F8FBFF36F8F00BF4FF0FF30134971
:10567000086001201249086000201249086000F00B
:1056800071F810E0601C08B1012000E0002050B962
:1056900000BF502080F31188BFF34F8FBFF36F8F8F
:1056A00000BF00BFFEE706B010BD000049444C45F6
:1056B000000000009D4E00087400002070000020D3
:1056C0005C0000205400002002480068401C014992
:1056D00008607047780000201D48006818B101205C
:1056E0001C49086032E000201A4908601A48006826
:1056F000B0FA80F0C0F11F0101EB8100174A52F8A7
:10570000200008B1012000E0002050B900BF502067
:1057100080F31188BFF34F8FBFF36F8F00BF00BFBF
:10572000FEE701EB81020D4B03EB820042685268F9
:10573000426000F108024368934202D14268526815
:1057400042604268D268064B1A6000BF7047000092
:10575000780000206400002058000020B8090020D4
:10576000400000201CB53849084600780190FF2011
:105770000A4610700846007800909DF8000000F07E
:10578000F0009DF80020904201D1012000E00020AF
:1057900050B900BF502080F31188BFF34F8FBFF383
:1057A0006F8F00BF00BFFEE79DF8000000F05000C3
:1057B000264A10700720264A106009E02448006835
:1057C000401E234A10609DF800004006000E009025
:1057D0009DF8000000F080008028EFD01C48006891
:1057E000C0F10700042801D1012000E0002050B9D9
:1057F00000BF502080F31188BFF34F8FBFF36F8F2E
:1058000000BF00BFFEE7124800680002104A1060A7
:105810001046008800F4E06010600B4A0198107098
:105820000C48006840F470000A49086008460068A7
:1058300040F070400860FFF7ADFE002006490860A8
:10584000FAF772FC00201CBD00E400E0A00000207C
:10585000A400002020ED00E09C0000202DE9FF4F77
:1058600085B0804689461746DDE912ABB800FFF7E0
:1058700025FC064656B15420FFF720FC04460CB127
:10588000266304E03046FFF733FE00E000248CB1CD
:10589000002084F85100CDE900ABCDE902403A4642
:1058A00049464046089BFFF70DFB2046FFF712FADA
:1058B000012501E04FF0FF35284609B0BDE8F08F23
:1058C0002DE9F04F85B00746884691469A46DDE9B6
:1058D0000EB6109C0EB1012000E0002050B900BFB0
:1058E000502080F31188BFF34F8FBFF36F8F00BF3D
:1058F00000BFFEE70CB1012000E0002050B900BF5E
:10590000502080F31188BFF34F8FBFF36F8F00BF1C
:1059100000BFFEE7542003900398542801D10120D2
:1059200000E0002050B900BF502080F31188BFF381
:105930004F8FBFF36F8F00BF00BFFEE700BFB4B152
:10594000AEB125462C462E63022085F8510000207A
:1059500004A953464A46CDE900B1CDE9025041467B
:105960003846FFF7AFFA2846FFF7B4F901E0002008
:105970000490049805B0BDE8F08F00002DE9F041D7
:105980004FF000084448006800287CD14348006874
:10599000451C4248056015BB41480068006808B9CD
:1059A000012000E0002050B900BF502080F3118892
:1059B000BFF34F8FBFF36F8F00BF00BFFEE73848C4
:1059C0000768384800683649086036480760364836
:1059D0000068401C34490860FFF736FB00BF3348BD
:1059E000006885423CD300BF2D480068006808B9B4
:1059F000012000E0002020B14FF0FF302B4908606B
:105A00002DE027480068C068C4686668B54202D2C5
:105A10002648066023E0201DFFF7CCFCA06A18B1E1
:105A200004F11800FFF7C6FC94F82C100120884000
:105A30001F49096808431E490860E16A01EB8101BA
:105A40001C4A02EB8100211DFFF7FEFC1A49E06AA7
:105A50000968C96A8842C7D34FF00108C4E700BF8C
:105A600015480068C06A00EB8000124951F8200018
:105A7000012801D94FF001081048006808B14FF023
:105A8000010805E0FFE70E480068401C0C4908606B
:105A90004046BDE8F081000078000020540000205E
:105AA0004400002048000020680000207000002012
:105AB00058000020B80900204000002064000020A9
:105AC0006000002070B5002400263648006850B9F8
:105AD00000BF502080F31188BFF34F8FBFF36F8F4B
